{
	"data": {
		"bytecode": {
			"linkReferences": {},
			"object": "6080604052346103b157604080519081016001600160401b038111828210176102c7576040908152601082526f109b1d5950d85c989bdb90dc99591a5d60821b602083015280519081016001600160401b038111828210176102c757604052600381526242434360e81b602082015281516001600160401b0381116102c7575f54600181811c911680156103a7575b60208210146102a957601f8111610345575b50602092601f82116001146102e657928192935f926102db575b50508160011b915f199060031b1c1916175f555b80516001600160401b0381116102c757600154600181811c911680156102bd575b60208210146102a957601f8111610246575b50602091601f82116001146101e6579181925f926101db575b50508160011b915f199060031b1c1916176001555b610138336103b5565b506101423361042b565b507fe88250d01110f0d26601320a0dc3deb69a3d819e8a3eecb6bc55ec90beb72e055f81815260066020527f29a7573f8f7db4fe95a7f9dd76c9355b427198dbc0cab2864cd3a802fbfd1ce080545f5160206133a75f395f51905f52918290556040519391929091907fbd79b86ffe0ab8e8776151514217cd7cacd52c909f66475c3af44e129f0b00ff9080a4612ebb90816104ac8239f35b015190505f8061011a565b601f1982169260015f52805f20915f5b85811061022e57508360019510610216575b505050811b0160015561012f565b01515f1960f88460031b161c191690555f8080610208565b919260206001819286850151815501940192016101f6565b60015f527fb10e2d527612073b26eecdfd717e6a320cf44b4afac2b0732d9fcbe2b7fa0cf6601f830160051c8101916020841061029f575b601f0160051c01905b8181106102945750610101565b5f8155600101610287565b909150819061027e565b634e487b7160e01b5f52602260045260245ffd5b90607f16906100ef565b634e487b7160e01b5f52604160045260245ffd5b015190505f806100ba565b601f198216935f8052805f20915f5b86811061032d5750836001959610610315575b505050811b015f556100ce565b01515f1960f88460031b161c191690555f8080610308565b919260206001819286850151815501940192016102f5565b5f80527f290decd9548b62a8d60345a988386fc84ba6bc95484008f6362f93160ef3e563601f830160051c8101916020841061039d575b601f0160051c01905b81811061039257506100a0565b5f8155600101610385565b909150819061037c565b90607f169061008e565b5f80fd5b6001600160a01b0381165f9081525f5160206133c75f395f51905f52602052604090205460ff16610426576001600160a01b03165f8181525f5160206133c75f395f51905f5260205260408120805460ff191660011790553391905f5160206133675f395f51905f528180a4600190565b505f90565b6001600160a01b0381165f9081525f5160206133875f395f51905f52602052604090205460ff16610426576001600160a01b03165f8181525f5160206133875f395f51905f5260205260408120805460ff191660011790553391905f5160206133a75f395f51905f52905f5160206133675f395f51905f529080a460019056fe60e0806040526004361015610012575f80fd5b5f905f3560e01c90816301ffc9a7146125b65750806306fdde0314612514578063081812fc146124d8578063095ea7b3146123ee578063107046bd146121a657806322fbf1e8146120f857806323b872dd146120e1578063248a9ca3146120ae5780632f2ff15d1461207057806336568abe1461202c57806342842e0e14611ffd57806347b2a92d14611a9857806349cc994c14611a5e57806352e6bc2d14611a155780635e75514d146119eb5780636352211e146119bb57806369b04f19146119065780636a880d11146118c057806370a082311461186f5780637251060a1461070e57806375b238fc146106d45780638d01ce2b1461067057806391d148541461062757806395d89b4114610549578063a217fddf1461052f578063a22cb46514610494578063b88d4fde14610427578063c87b56dd146103ce578063d082e381146103b0578063d547741f14610368578063dbd0b271146102e6578063e985e9c51461028e578063f8a518ed146102705763fc69d83614610194575f80fd5b3461026d57602036600319011261026d576004357fa49807205ce4d355092ef5a8a18f56e8913cf4a201fbe287825b095693c21775825260066020526040822060018060a01b0333165f526020526101f260ff60405f20541661288f565b808252600a60205260ff6010604084200154166003811015610259576102189015612aad565b808252600a60205260408220601001805460ff191660011790557ffc534544f8ed1b516bf078b4ae88509d8f81f4fafefb10e9aad53e3e1fbce9bb8280a280f35b634e487b7160e01b83526021600452602483fd5b80fd5b503461026d578060031936011261026d576020600754604051908152f35b503461026d57604036600319011261026d5760406102aa61265f565b916102b3612675565b9260018060a01b031681526005602052209060018060a01b03165f52602052602060ff60405f2054166040519015158152f35b503461026d57602036600319011261026d576001600160a01b0361030861265f565b168152600b60205260408120604051918260208354918281520192825260208220915b8181106103525761034e85610342818703826126c3565b60405191829182612856565b0390f35b825484526020909301926001928301920161032b565b503461026d57604036600319011261026d576103ac600435610388612675565b906103a76103a2825f526006602052600160405f20015490565b612b23565b612cba565b5080f35b503461026d578060031936011261026d576020600854604051908152f35b34610423576020366003190112610423576103ea600435612aef565b505f6040516103fa6020826126c3565b5261034e60405161040c6020826126c3565b5f815260405191829160208352602083019061263b565b5f80fd5b346104235760803660031901126104235761044061265f565b610448612675565b90604435606435926001600160401b038411610423573660238501121561042357610480610492943690602481600401359101612802565b9261048c8383836128d1565b33612d4f565b005b34610423576040366003190112610423576104ad61265f565b60243590811515809203610423576001600160a01b031690811561051c57335f52600560205260405f20825f5260205260405f2060ff1981541660ff83161790556040519081527f17307eab39ab6107e8899845ad3d59bd9653f200f220920489ca2b5937696c3160203392a3005b50630b61174360e31b5f5260045260245ffd5b34610423575f3660031901126104235760206040515f8152f35b34610423575f366003190112610423576040515f6001546105698161268b565b808452906001811690811561060357506001146105a5575b61034e83610591818503826126c3565b60405191829160208352602083019061263b565b60015f9081527fb10e2d527612073b26eecdfd717e6a320cf44b4afac2b0732d9fcbe2b7fa0cf6939250905b8082106105e957509091508101602001610591610581565b9192600181602092548385880101520191019092916105d1565b60ff191660208086019190915291151560051b840190910191506105919050610581565b3461042357604036600319011261042357610640612675565b6004355f52600660205260405f209060018060a01b03165f52602052602060ff60405f2054166040519015158152f35b34610423576020366003190112610423576004355f52600c60205260405f206040519081602082549182815201915f5260205f20905f5b8181106106be5761034e85610342818703826126c3565b82548452602090930192600192830192016106a7565b34610423575f3660031901126104235760206040517fa49807205ce4d355092ef5a8a18f56e8913cf4a201fbe287825b095693c217758152f35b34610423576101c0366003190112610423576004356001600160401b0381116104235761073f903690600401612838565b6024356001600160401b0381116104235761075e903690600401612838565b6044356001600160401b0381116104235761077d903690600401612838565b6064356001600160401b0381116104235761079c903690600401612838565b6084356001600160401b038111610423576107bb903690600401612838565b60a4356001600160401b038111610423576107da903690600401612838565b60c4356001600160401b038111610423576107f9903690600401612838565b610104356001600160401b03811161042357610819903690600401612838565b610124356001600160401b03811161042357610839903690600401612838565b91610144356001600160401b0381116104235761085a903690600401612838565b93610164356001600160401b0381116104235761087b903690600401612838565b95610184356001600160401b0381116104235761089c903690600401612838565b976101a4356001600160401b038111610423576108bd903690600401612838565b335f9081527f29a7573f8f7db4fe95a7f9dd76c9355b427198dbc0cab2864cd3a802fbfd1cdf6020526040902054909a9060ff161561182a57610901600754612a66565b9b8c6007556040519d8e61022081019081106001600160401b03821117610fca578f90918f60609360405282523360208301526040820152015260808d015260a08c015260c08b015260e08a015261010089015260e4356101208901526101408801526101608701526101808601526101a08501526101c08401526101e08301525f6102008301525f52600a60205260405f20908051825560018060a01b03602082015116600183019060018060a01b03166001600160601b0360a01b825416179055600282019160408201519283516001600160401b038111610fca576109e9825461268b565b601f81116117e5575b50602094601f8211600114611784579481929394955f92611779575b50508160011b915f199060031b1c19161790555b600381019160608101519283516001600160401b038111610fca57610a47825461268b565b601f8111611734575b50602094601f82116001146116d3579481929394955f926116c8575b50508160011b915f199060031b1c19161790555b600482019160808201519283516001600160401b038111610fca57610aa5825461268b565b601f8111611683575b50602094601f8211600114611622579481929394955f92611617575b50508160011b915f199060031b1c19161790555b600581019160a08101519283516001600160401b038111610fca57610b03825461268b565b601f81116115d2575b50602094601f8211600114611571579481929394955f92611566575b50508160011b915f199060031b1c19161790555b600682019160c08201519283516001600160401b038111610fca57610b61825461268b565b601f8111611521575b50602094601f82116001146114c0579481929394955f926114b5575b50508160011b915f199060031b1c19161790555b600781019160e08101519283516001600160401b038111610fca57610bbf825461268b565b601f8111611470575b50602094601f821160011461140f579481929394955f92611404575b50508160011b915f199060031b1c19161790555b60088201916101008201519283516001600160401b038111610fca57610c1e825461268b565b601f81116113bf575b50602094601f821160011461135e579481929394955f92611353575b50508160011b915f199060031b1c19161790555b6101208201516009820155600a8101916101408101519283516001600160401b038111610fca57610c88825461268b565b601f811161130e575b50602094601f82116001146112ad579481929394955f926112a2575b50508160011b915f199060031b1c19161790555b600b8201916101608201519283516001600160401b038111610fca57610ce7825461268b565b601f811161125d575b50602094601f82116001146111fc579481929394955f926111f1575b50508160011b915f199060031b1c19161790555b600c8101916101808101519283516001600160401b038111610fca57610d46825461268b565b601f81116111ac575b50602094601f821160011461114b579481929394955f92611140575b50508160011b915f199060031b1c19161790555b600d8201916101a08201519283516001600160401b038111610fca57610da5825461268b565b601f81116110fb575b50602094601f821160011461109a579481929394955f9261108f575b50508160011b915f199060031b1c19161790555b600e8101916101c08101519283516001600160401b038111610fca57610e04825461268b565b601f811161104a575b50602094601f8211600114610fe9579481929394955f92610fde575b50508160011b915f199060031b1c19161790555b600f8201916101e08201519283516001600160401b038111610fca57610e63825461268b565b601f8111610f85575b506020601f8211600114610f1b579080601094939261020096975f92610f10575b50508160011b915f199060031b1c19161790555b019101516003811015610efc5760ff80198354169116179055335f52600b602052610ed260405f2060075490612a74565b336007547f22eb44677349043faa70ae1c857bc016d223f2d92e34ffde97179347f18c8d5d5f80a3005b634e487b7160e01b5f52602160045260245ffd5b015190508780610e8d565b601f19821695835f52815f20965f5b818110610f6d57509660019284926010979695610200999a10610f55575b505050811b019055610ea1565b01515f1960f88460031b161c19169055878080610f48565b83830151895560019098019760209384019301610f2a565b825f5260205f20601f830160051c81019160208410610fc0575b601f0160051c01905b818110610fb55750610e6c565b5f8155600101610fa8565b9091508190610f9f565b634e487b7160e01b5f52604160045260245ffd5b015190508580610e29565b601f19821695835f52805f20915f5b8881106110325750836001959697981061101a575b505050811b019055610e3d565b01515f1960f88460031b161c1916905585808061100d565b91926020600181928685015181550194019201610ff8565b825f5260205f20601f830160051c81019160208410611085575b601f0160051c01905b81811061107a5750610e0d565b5f815560010161106d565b9091508190611064565b015190508580610dca565b601f19821695835f52805f20915f5b8881106110e3575083600195969798106110cb575b505050811b019055610dde565b01515f1960f88460031b161c191690558580806110be565b919260206001819286850151815501940192016110a9565b825f5260205f20601f830160051c81019160208410611136575b601f0160051c01905b81811061112b5750610dae565b5f815560010161111e565b9091508190611115565b015190508580610d6b565b601f19821695835f52805f20915f5b8881106111945750836001959697981061117c575b505050811b019055610d7f565b01515f1960f88460031b161c1916905585808061116f565b9192602060018192868501518155019401920161115a565b825f5260205f20601f830160051c810191602084106111e7575b601f0160051c01905b8181106111dc5750610d4f565b5f81556001016111cf565b90915081906111c6565b015190508580610d0c565b601f19821695835f52805f20915f5b8881106112455750836001959697981061122d575b505050811b019055610d20565b01515f1960f88460031b161c19169055858080611220565b9192602060018192868501518155019401920161120b565b825f5260205f20601f830160051c81019160208410611298575b601f0160051c01905b81811061128d5750610cf0565b5f8155600101611280565b9091508190611277565b015190508580610cad565b601f19821695835f52805f20915f5b8881106112f6575083600195969798106112de575b505050811b019055610cc1565b01515f1960f88460031b161c191690558580806112d1565b919260206001819286850151815501940192016112bc565b825f5260205f20601f830160051c81019160208410611349575b601f0160051c01905b81811061133e5750610c91565b5f8155600101611331565b9091508190611328565b015190508580610c43565b601f19821695835f52805f20915f5b8881106113a75750836001959697981061138f575b505050811b019055610c57565b01515f1960f88460031b161c19169055858080611382565b9192602060018192868501518155019401920161136d565b825f5260205f20601f830160051c810191602084106113fa575b601f0160051c01905b8181106113ef5750610c27565b5f81556001016113e2565b90915081906113d9565b015190508580610be4565b601f19821695835f52805f20915f5b88811061145857508360019596979810611440575b505050811b019055610bf8565b01515f1960f88460031b161c19169055858080611433565b9192602060018192868501518155019401920161141e565b825f5260205f20601f830160051c810191602084106114ab575b601f0160051c01905b8181106114a05750610bc8565b5f8155600101611493565b909150819061148a565b015190508580610b86565b601f19821695835f52805f20915f5b888110611509575083600195969798106114f1575b505050811b019055610b9a565b01515f1960f88460031b161c191690558580806114e4565b919260206001819286850151815501940192016114cf565b825f5260205f20601f830160051c8101916020841061155c575b601f0160051c01905b8181106115515750610b6a565b5f8155600101611544565b909150819061153b565b015190508580610b28565b601f19821695835f52805f20915f5b8881106115ba575083600195969798106115a2575b505050811b019055610b3c565b01515f1960f88460031b161c19169055858080611595565b91926020600181928685015181550194019201611580565b825f5260205f20601f830160051c8101916020841061160d575b601f0160051c01905b8181106116025750610b0c565b5f81556001016115f5565b90915081906115ec565b015190508580610aca565b601f19821695835f52805f20915f5b88811061166b57508360019596979810611653575b505050811b019055610ade565b01515f1960f88460031b161c19169055858080611646565b91926020600181928685015181550194019201611631565b825f5260205f20601f830160051c810191602084106116be575b601f0160051c01905b8181106116b35750610aae565b5f81556001016116a6565b909150819061169d565b015190508580610a6c565b601f19821695835f52805f20915f5b88811061171c57508360019596979810611704575b505050811b019055610a80565b01515f1960f88460031b161c191690558580806116f7565b919260206001819286850151815501940192016116e2565b825f5260205f20601f830160051c8101916020841061176f575b601f0160051c01905b8181106117645750610a50565b5f8155600101611757565b909150819061174e565b015190508580610a0e565b601f19821695835f52805f20915f5b8881106117cd575083600195969798106117b5575b505050811b019055610a22565b01515f1960f88460031b161c191690558580806117a8565b91926020600181928685015181550194019201611793565b825f5260205f20601f830160051c81019160208410611820575b601f0160051c01905b81811061181557506109f2565b5f8155600101611808565b90915081906117ff565b60405162461bcd60e51b815260206004820152601760248201527f526571756972657320646576656c6f70657220726f6c650000000000000000006044820152606490fd5b34610423576020366003190112610423576001600160a01b0361189061265f565b1680156118ad575f526003602052602060405f2054604051908152f35b6322718ad960e21b5f525f60045260245ffd5b34610423576040366003190112610423576024356004355f52600c60205260405f208054821015610423576020916118f7916127be565b90549060031b1c604051908152f35b3461042357602036600319011261042357335f9081527f0c3bb05773fb95f6688e1e7d9c896674dccd66884026cf30a3d5e3a9bfecd8116020526040902054600435906119559060ff1661288f565b805f52600a60205260ff601060405f200154166003811015610efc5761197b9015612aad565b805f52600a602052601060405f2001600260ff198254161790557fcdcfe8bd58f12ac7a585895f7045b6322a1ec7e7179377dc3bfa8434ed22e7245f80a2005b346104235760203660031901126104235760206119d9600435612aef565b6040516001600160a01b039091168152f35b34610423576020366003190112610423576004355f526009602052602060405f2054604051908152f35b3461042357604036600319011261042357611a2e61265f565b6001600160a01b03165f908152600b6020526040902080546024359190821015610423576020916118f7916127be565b34610423575f3660031901126104235760206040517fe88250d01110f0d26601320a0dc3deb69a3d819e8a3eecb6bc55ec90beb72e058152f35b3461042357606036600319011261042357600435611ab4612675565b335f9081527f0c3bb05773fb95f6688e1e7d9c896674dccd66884026cf30a3d5e3a9bfecd81160205260409020546044359290611af39060ff1661288f565b805f52600a60205260405f2060ff6010820154166003811015610efc57600103611fc157600d611b2391016126e4565b905f935f945b8351861015611c1957600360fc1b6001600160f81b0319611b4a8887612d3e565b5116101580611bf7575b15611bb257600a810290808204600a1490151715611b9e57602f19611b798786612d3e565b5160f81c0160ff8111611b9e5760019160ff611b96921690612a59565b950194611b29565b634e487b7160e01b5f52601160045260245ffd5b60405162461bcd60e51b815260206004820152601b60248201527f496e76616c69642063686172616374657220696e206e756d62657200000000006044820152606490fd5b50603960f81b6001600160f81b0319611c108887612d3e565b51161115611b54565b8490835f52600960205260405f205481811015611f7c578315611f425783611c4091612a59565b11611eed57916020906001600160a01b038416801580155f5b868110611c7b5786600987875f5252611c7760405f20918254612a59565b9055005b611c86600854612a66565b8060085560405190611c9888836126c3565b845f8352611eda575f8181526002895260409020546001600160a01b0316801515908582611ea7575b611e90575b825f5260028a5260405f20886001600160601b0360a01b8254161790558288827fddf252ad1be2c89b69c2b068fc378daa952ba7f163c4a11628f55a4df523b3ef5f80a450611e7d57893b611d61575b5050600190855f52600c8752611d3260405f2060085490612a74565b84866008547f4b90b8c456043cbc8150108090c41bb0e60447a0313f556a8e100091eee13d3a5f80a401611c59565b96611da091819997969a986040519384928392630a85bd0160e11b84523360048501525f6024850152604484015260806064840152608483019061263b565b03815f8d5af15f9181611e3d575b50611e035788883d15611dfb573d90611dc6826127e7565b91611dd460405193846126c3565b82523d5f8284013e5b81519182611df85783633250574960e11b5f5260045260245ffd5b01fd5b606090611ddd565b95979496959394936001600160e01b03191663757a42ff60e11b01611e2a57600189611d16565b83633250574960e11b5f5260045260245ffd5b9091508881813d8311611e76575b611e5581836126c3565b8101031261042357516001600160e01b03198116810361042357908a611dae565b503d611e4b565b6339e3563760e11b5f525f60045260245ffd5b875f5260038a5260405f2060018154019055611cc6565b505f8381526004602052604080822080546001600160a01b031916905582825260038c52902080545f1901905585611cc1565b633250574960e11b5f525f60045260245ffd5b60405162461bcd60e51b815260206004820152602760248201527f43616e6e6f74206d696e74206d6f7265207468616e20657374696d61746564206044820152666372656469747360c81b6064820152608490fd5b60405162461bcd60e51b81526020600482015260126024820152710416d6f756e74206d757374206265203e20360741b6044820152606490fd5b60405162461bcd60e51b815260206004820152601a60248201527f416c6c206372656469747320616c7265616479206d696e7465640000000000006044820152606490fd5b60405162461bcd60e51b8152602060048201526014602482015273141c9bda9958dd081b9bdd08185c1c1c9bdd995960621b6044820152606490fd5b346104235761049261200e36612784565b906040519261201e6020856126c3565b5f845261048c8383836128d1565b3461042357604036600319011261042357612045612675565b336001600160a01b038216036120615761049290600435612cba565b63334bd91960e11b5f5260045ffd5b346104235760403660031901126104235761049260043561208f612675565b906120a96103a2825f526006602052600160405f20015490565b612c2e565b346104235760203660031901126104235760206120d96004355f526006602052600160405f20015490565b604051908152f35b34610423576104926120f236612784565b916128d1565b346104235760203660031901126104235761049261211461265f565b335f9081527f0c3bb05773fb95f6688e1e7d9c896674dccd66884026cf30a3d5e3a9bfecd811602052604090205461214e9060ff1661288f565b7fe88250d01110f0d26601320a0dc3deb69a3d819e8a3eecb6bc55ec90beb72e055f5260066020527f29a7573f8f7db4fe95a7f9dd76c9355b427198dbc0cab2864cd3a802fbfd1ce0546121a190612b23565b612b5d565b34610423576020366003190112610423576004355f908152600a60205260409020805460018201546001600160a01b031660c052819081906121ea600283016126e4565b6121f6600384016126e4565b612202600485016126e4565b61220e600586016126e4565b61221a600687016126e4565b612226600788016126e4565b90612233600889016126e4565b92600989015494600a8a01612247906126e4565b96612254600b8c016126e4565b98612261600c8d016126e4565b9a61226e600d8e016126e4565b9c600e0161227b906126e4565b9d600f01612288906126e4565b9e6010015460ff1660805260405160a05260a0515260c05160a0516020015260a051604001610220905260a051610220016122c29161263b565b60a051810360a051606001526122d79161263b565b60a051810360a051608001526122ec9161263b565b60a051810360a05160a001526123019161263b565b60a051810360a05160c001526123169161263b565b60a051810360a05160e0015261232b9161263b565b60a051810360a05161010001526123419161263b565b9060a051610120015260a051810360a05161014001526123609161263b565b60a051810360a05161016001526123769161263b565b60a051810360a051610180015261238c9161263b565b60a051810360a0516101a001526123a29161263b565b60a051810360a0516101c001526123b89161263b565b60a051810360a0516101e001526123ce9161263b565b60805160031115610efc5760805161020060a051015260a051900360a051f35b346104235760403660031901126104235761240761265f565b60243561241381612aef565b331515806124c5575b80612498575b6124855781906001600160a01b0384811691167f8c5be1e5ebec7d5bd14f71427d1e84f3dd0314c0f7b2291e5b200ac8c7c3b9255f80a45f90815260046020526040902080546001600160a01b0319166001600160a01b03909216919091179055005b63a9fbf51f60e01b5f523360045260245ffd5b506001600160a01b0381165f90815260056020908152604080832033845290915290205460ff1615612422565b506001600160a01b03811633141561241c565b34610423576020366003190112610423576004356124f581612aef565b505f526004602052602060018060a01b0360405f205416604051908152f35b34610423575f366003190112610423576040515f5f546125338161268b565b8084529060018116908115610603575060011461255a5761034e83610591818503826126c3565b5f8080527f290decd9548b62a8d60345a988386fc84ba6bc95484008f6362f93160ef3e563939250905b80821061259c57509091508101602001610591610581565b919260018160209254838588010152019101909291612584565b34610423576020366003190112610423576004359063ffffffff60e01b821680920361042357602091637965db0b60e01b81149081156125f8575b5015158152f35b6380ac58cd60e01b81149150811561262a575b8115612619575b50836125f1565b6301ffc9a760e01b14905083612612565b635b5e139f60e01b8114915061260b565b805180835260209291819084018484015e5f828201840152601f01601f1916010190565b600435906001600160a01b038216820361042357565b602435906001600160a01b038216820361042357565b90600182811c921680156126b9575b60208310146126a557565b634e487b7160e01b5f52602260045260245ffd5b91607f169161269a565b90601f801991011681019081106001600160401b03821117610fca57604052565b9060405191825f8254926126f78461268b565b8084529360018116908115612762575060011461271e575b5061271c925003836126c3565b565b90505f9291925260205f20905f915b81831061274657505090602061271c928201015f61270f565b602091935080600191548385890101520191019091849261272d565b90506020925061271c94915060ff191682840152151560051b8201015f61270f565b6060906003190112610423576004356001600160a01b038116810361042357906024356001600160a01b0381168103610423579060443590565b80548210156127d3575f5260205f2001905f90565b634e487b7160e01b5f52603260045260245ffd5b6001600160401b038111610fca57601f01601f191660200190565b92919261280e826127e7565b9161281c60405193846126c3565b829481845281830111610423578281602093845f960137010152565b9080601f830112156104235781602061285393359101612802565b90565b60206040818301928281528451809452019201905f5b8181106128795750505090565b825184526020938401939092019160010161286c565b1561289657565b60405162461bcd60e51b815260206004820152601360248201527252657175697265732061646d696e20726f6c6560681b6044820152606490fd5b6001600160a01b0390911691908215611eda575f828152600260205260409020546001600160a01b0316928290331515806129c4575b5084612991575b805f52600360205260405f2060018154019055815f52600260205260405f20816001600160601b0360a01b825416179055847fddf252ad1be2c89b69c2b068fc378daa952ba7f163c4a11628f55a4df523b3ef5f80a46001600160a01b031680830361297957505050565b6364283d7b60e01b5f5260045260245260445260645ffd5b5f82815260046020526040902080546001600160a01b0319169055845f52600360205260405f205f19815401905561290e565b90915080612a08575b156129da5782905f612907565b82846129f257637e27328960e01b5f5260045260245ffd5b63177e802f60e01b5f523360045260245260445ffd5b503384148015612a37575b806129cd57505f838152600460205260409020546001600160a01b031633146129cd565b505f84815260056020908152604080832033845290915290205460ff16612a13565b91908201809211611b9e57565b5f198114611b9e5760010190565b805468010000000000000000811015610fca57612a96916001820181556127be565b819291549060031b91821b915f19901b1916179055565b15612ab457565b60405162461bcd60e51b815260206004820152601360248201527250726f6a656374206e6f742070656e64696e6760681b6044820152606490fd5b5f818152600260205260409020546001600160a01b0316908115612b11575090565b637e27328960e01b5f5260045260245ffd5b5f81815260066020908152604080832033845290915290205460ff1615612b475750565b63e2517d3f60e01b5f523360045260245260445ffd5b6001600160a01b0381165f9081527f29a7573f8f7db4fe95a7f9dd76c9355b427198dbc0cab2864cd3a802fbfd1cdf602052604090205460ff16612c29576001600160a01b03165f8181527f29a7573f8f7db4fe95a7f9dd76c9355b427198dbc0cab2864cd3a802fbfd1cdf60205260408120805460ff191660011790553391907fe88250d01110f0d26601320a0dc3deb69a3d819e8a3eecb6bc55ec90beb72e05907f2f8788117e7eff1d82e926ec794901d17c78024a50270940304540a733656f0d9080a4600190565b505f90565b5f8181526006602090815260408083206001600160a01b038616845290915290205460ff16612cb4575f8181526006602090815260408083206001600160a01b0395909516808452949091528120805460ff19166001179055339291907f2f8788117e7eff1d82e926ec794901d17c78024a50270940304540a733656f0d9080a4600190565b50505f90565b5f8181526006602090815260408083206001600160a01b038616845290915290205460ff1615612cb4575f8181526006602090815260408083206001600160a01b0395909516808452949091528120805460ff19169055339291907ff6391f5c32d9c69d2a47ea670b442974b53935d1edc7fd64eb21e047a839171b9080a4600190565b9081518110156127d3570160200190565b823b612d5d575b5050505050565b604051630a85bd0160e11b81526001600160a01b039182166004820152918116602483015260448201939093526080606482015291169160209082908190612da990608483019061263b565b03815f865af15f9181612e40575b50612e0c57503d15612e05573d612dcd816127e7565b90612ddb60405192836126c3565b81523d5f602083013e5b80519081612e005782633250574960e11b5f5260045260245ffd5b602001fd5b6060612de5565b6001600160e01b03191663757a42ff60e11b01612e2e57505f80808080612d56565b633250574960e11b5f5260045260245ffd5b9091506020813d602011612e7d575b81612e5c602093836126c3565b8101031261042357516001600160e01b03198116810361042357905f612db7565b3d9150612e4f56fea2646970667358221220972f39641db56f4ccd21d674a5aeeb420877350f4fbe72a1c30ed19dcae4f15f64736f6c634300081e00332f8788117e7eff1d82e926ec794901d17c78024a50270940304540a733656f0d0c3bb05773fb95f6688e1e7d9c896674dccd66884026cf30a3d5e3a9bfecd811a49807205ce4d355092ef5a8a18f56e8913cf4a201fbe287825b095693c2177554cdd369e4e8a8515e52ca72ec816c2101831ad1f18bf44102ed171459c9b4f8",
			"opcodes": "PUSH1 0x80 PUSH1 0x40 MSTORE CALLVALUE PUSH2 0x3B1 JUMPI PUSH1 0x40 DUP1 MLOAD SWAP1 DUP2 ADD PUSH1 0x1 PUSH1 0x1 PUSH1 0x40 SHL SUB DUP2 GT DUP3 DUP3 LT OR PUSH2 0x2C7 JUMPI PUSH1 0x40 SWAP1 DUP2 MSTORE PUSH1 0x10 DUP3 MSTORE PUSH16 0x109B1D5950D85C989BDB90DC99591A5D PUSH1 0x82 SHL PUSH1 0x20 DUP4 ADD MSTORE DUP1 MLOAD SWAP1 DUP2 ADD PUSH1 0x1 PUSH1 0x1 PUSH1 0x40 SHL SUB DUP2 GT DUP3 DUP3 LT OR PUSH2 0x2C7 JUMPI PUSH1 0x40 MSTORE PUSH1 0x3 DUP2 MSTORE PUSH3 0x424343 PUSH1 0xE8 SHL PUSH1 0x20 DUP3 ADD MSTORE DUP2 MLOAD PUSH1 0x1 PUSH1 0x1 PUSH1 0x40 SHL SUB DUP2 GT PUSH2 0x2C7 JUMPI PUSH0 SLOAD PUSH1 0x1 DUP2 DUP2 SHR SWAP2 AND DUP1 ISZERO PUSH2 0x3A7 JUMPI JUMPDEST PUSH1 0x20 DUP3 LT EQ PUSH2 0x2A9 JUMPI PUSH1 0x1F DUP2 GT PUSH2 0x345 JUMPI JUMPDEST POP PUSH1 0x20 SWAP3 PUSH1 0x1F DUP3 GT PUSH1 0x1 EQ PUSH2 0x2E6 JUMPI SWAP3 DUP2 SWAP3 SWAP4 PUSH0 SWAP3 PUSH2 0x2DB JUMPI JUMPDEST POP POP DUP2 PUSH1 0x1 SHL SWAP2 PUSH0 NOT SWAP1 PUSH1 0x3 SHL SHR NOT AND OR PUSH0 SSTORE JUMPDEST DUP1 MLOAD PUSH1 0x1 PUSH1 0x1 PUSH1 0x40 SHL SUB DUP2 GT PUSH2 0x2C7 JUMPI PUSH1 0x1 SLOAD PUSH1 0x1 DUP2 DUP2 SHR SWAP2 AND DUP1 ISZERO PUSH2 0x2BD JUMPI JUMPDEST PUSH1 0x20 DUP3 LT EQ PUSH2 0x2A9 JUMPI PUSH1 0x1F DUP2 GT PUSH2 0x246 JUMPI JUMPDEST POP PUSH1 0x20 SWAP2 PUSH1 0x1F DUP3 GT PUSH1 0x1 EQ PUSH2 0x1E6 JUMPI SWAP2 DUP2 SWAP3 PUSH0 SWAP3 PUSH2 0x1DB JUMPI JUMPDEST POP POP DUP2 PUSH1 0x1 SHL SWAP2 PUSH0 NOT SWAP1 PUSH1 0x3 SHL SHR NOT AND OR PUSH1 0x1 SSTORE JUMPDEST PUSH2 0x138 CALLER PUSH2 0x3B5 JUMP JUMPDEST POP PUSH2 0x142 CALLER PUSH2 0x42B JUMP JUMPDEST POP PUSH32 0xE88250D01110F0D26601320A0DC3DEB69A3D819E8A3EECB6BC55EC90BEB72E05 PUSH0 DUP2 DUP2 MSTORE PUSH1 0x6 PUSH1 0x20 MSTORE PUSH32 0x29A7573F8F7DB4FE95A7F9DD76C9355B427198DBC0CAB2864CD3A802FBFD1CE0 DUP1 SLOAD PUSH0 MLOAD PUSH1 0x20 PUSH2 0x33A7 PUSH0 CODECOPY PUSH0 MLOAD SWAP1 PUSH0 MSTORE SWAP2 DUP3 SWAP1 SSTORE PUSH1 0x40 MLOAD SWAP4 SWAP2 SWAP3 SWAP1 SWAP2 SWAP1 PUSH32 0xBD79B86FFE0AB8E8776151514217CD7CACD52C909F66475C3AF44E129F0B00FF SWAP1 DUP1 LOG4 PUSH2 0x2EBB SWAP1 DUP2 PUSH2 0x4AC DUP3 CODECOPY RETURN JUMPDEST ADD MLOAD SWAP1 POP PUSH0 DUP1 PUSH2 0x11A JUMP JUMPDEST PUSH1 0x1F NOT DUP3 AND SWAP3 PUSH1 0x1 PUSH0 MSTORE DUP1 PUSH0 KECCAK256 SWAP2 PUSH0 JUMPDEST DUP6 DUP2 LT PUSH2 0x22E JUMPI POP DUP4 PUSH1 0x1 SWAP6 LT PUSH2 0x216 JUMPI JUMPDEST POP POP POP DUP2 SHL ADD PUSH1 0x1 SSTORE PUSH2 0x12F JUMP JUMPDEST ADD MLOAD PUSH0 NOT PUSH1 0xF8 DUP5 PUSH1 0x3 SHL AND SHR NOT AND SWAP1 SSTORE PUSH0 DUP1 DUP1 PUSH2 0x208 JUMP JUMPDEST SWAP2 SWAP3 PUSH1 0x20 PUSH1 0x1 DUP2 SWAP3 DUP7 DUP6 ADD MLOAD DUP2 SSTORE ADD SWAP5 ADD SWAP3 ADD PUSH2 0x1F6 JUMP JUMPDEST PUSH1 0x1 PUSH0 MSTORE PUSH32 0xB10E2D527612073B26EECDFD717E6A320CF44B4AFAC2B0732D9FCBE2B7FA0CF6 PUSH1 0x1F DUP4 ADD PUSH1 0x5 SHR DUP2 ADD SWAP2 PUSH1 0x20 DUP5 LT PUSH2 0x29F JUMPI JUMPDEST PUSH1 0x1F ADD PUSH1 0x5 SHR ADD SWAP1 JUMPDEST DUP2 DUP2 LT PUSH2 0x294 JUMPI POP PUSH2 0x101 JUMP JUMPDEST PUSH0 DUP2 SSTORE PUSH1 0x1 ADD PUSH2 0x287 JUMP JUMPDEST SWAP1 SWAP2 POP DUP2 SWAP1 PUSH2 0x27E JUMP JUMPDEST PUSH4 0x4E487B71 PUSH1 0xE0 SHL PUSH0 MSTORE PUSH1 0x22 PUSH1 0x4 MSTORE PUSH1 0x24 PUSH0 REVERT JUMPDEST SWAP1 PUSH1 0x7F AND SWAP1 PUSH2 0xEF JUMP JUMPDEST PUSH4 0x4E487B71 PUSH1 0xE0 SHL PUSH0 MSTORE PUSH1 0x41 PUSH1 0x4 MSTORE PUSH1 0x24 PUSH0 REVERT JUMPDEST ADD MLOAD SWAP1 POP PUSH0 DUP1 PUSH2 0xBA JUMP JUMPDEST PUSH1 0x1F NOT DUP3 AND SWAP4 PUSH0 DUP1 MSTORE DUP1 PUSH0 KECCAK256 SWAP2 PUSH0 JUMPDEST DUP7 DUP2 LT PUSH2 0x32D JUMPI POP DUP4 PUSH1 0x1 SWAP6 SWAP7 LT PUSH2 0x315 JUMPI JUMPDEST POP POP POP DUP2 SHL ADD PUSH0 SSTORE PUSH2 0xCE JUMP JUMPDEST ADD MLOAD PUSH0 NOT PUSH1 0xF8 DUP5 PUSH1 0x3 SHL AND SHR NOT AND SWAP1 SSTORE PUSH0 DUP1 DUP1 PUSH2 0x308 JUMP JUMPDEST SWAP2 SWAP3 PUSH1 0x20 PUSH1 0x1 DUP2 SWAP3 DUP7 DUP6 ADD MLOAD DUP2 SSTORE ADD SWAP5 ADD SWAP3 ADD PUSH2 0x2F5 JUMP JUMPDEST PUSH0 DUP1 MSTORE PUSH32 0x290DECD9548B62A8D60345A988386FC84BA6BC95484008F6362F93160EF3E563 PUSH1 0x1F DUP4 ADD PUSH1 0x5 SHR DUP2 ADD SWAP2 PUSH1 0x20 DUP5 LT PUSH2 0x39D JUMPI JUMPDEST PUSH1 0x1F ADD PUSH1 0x5 SHR ADD SWAP1 JUMPDEST DUP2 DUP2 LT PUSH2 0x392 JUMPI POP PUSH2 0xA0 JUMP JUMPDEST PUSH0 DUP2 SSTORE PUSH1 0x1 ADD PUSH2 0x385 JUMP JUMPDEST SWAP1 SWAP2 POP DUP2 SWAP1 PUSH2 0x37C JUMP JUMPDEST SWAP1 PUSH1 0x7F AND SWAP1 PUSH2 0x8E JUMP JUMPDEST PUSH0 DUP1 REVERT JUMPDEST PUSH1 0x1 PUSH1 0x1 PUSH1 0xA0 SHL SUB DUP2 AND PUSH0 SWAP1 DUP2 MSTORE PUSH0 MLOAD PUSH1 0x20 PUSH2 0x33C7 PUSH0 CODECOPY PUSH0 MLOAD SWAP1 PUSH0 MSTORE PUSH1 0x20 MSTORE PUSH1 0x40 SWAP1 KECCAK256 SLOAD PUSH1 0xFF AND PUSH2 0x426 JUMPI PUSH1 0x1 PUSH1 0x1 PUSH1 0xA0 SHL SUB AND PUSH0 DUP2 DUP2 MSTORE PUSH0 MLOAD PUSH1 0x20 PUSH2 0x33C7 PUSH0 CODECOPY PUSH0 MLOAD SWAP1 PUSH0 MSTORE PUSH1 0x20 MSTORE PUSH1 0x40 DUP2 KECCAK256 DUP1 SLOAD PUSH1 0xFF NOT AND PUSH1 0x1 OR SWAP1 SSTORE CALLER SWAP2 SWAP1 PUSH0 MLOAD PUSH1 0x20 PUSH2 0x3367 PUSH0 CODECOPY PUSH0 MLOAD SWAP1 PUSH0 MSTORE DUP2 DUP1 LOG4 PUSH1 0x1 SWAP1 JUMP JUMPDEST POP PUSH0 SWAP1 JUMP JUMPDEST PUSH1 0x1 PUSH1 0x1 PUSH1 0xA0 SHL SUB DUP2 AND PUSH0 SWAP1 DUP2 MSTORE PUSH0 MLOAD PUSH1 0x20 PUSH2 0x3387 PUSH0 CODECOPY PUSH0 MLOAD SWAP1 PUSH0 MSTORE PUSH1 0x20 MSTORE PUSH1 0x40 SWAP1 KECCAK256 SLOAD PUSH1 0xFF AND PUSH2 0x426 JUMPI PUSH1 0x1 PUSH1 0x1 PUSH1 0xA0 SHL SUB AND PUSH0 DUP2 DUP2 MSTORE PUSH0 MLOAD PUSH1 0x20 PUSH2 0x3387 PUSH0 CODECOPY PUSH0 MLOAD SWAP1 PUSH0 MSTORE PUSH1 0x20 MSTORE PUSH1 0x40 DUP2 KECCAK256 DUP1 SLOAD PUSH1 0xFF NOT AND PUSH1 0x1 OR SWAP1 SSTORE CALLER SWAP2 SWAP1 PUSH0 MLOAD PUSH1 0x20 PUSH2 0x33A7 PUSH0 CODECOPY PUSH0 MLOAD SWAP1 PUSH0 MSTORE SWAP1 PUSH0 MLOAD PUSH1 0x20 PUSH2 0x3367 PUSH0 CODECOPY PUSH0 MLOAD SWAP1 PUSH0 MSTORE SWAP1 DUP1 LOG4 PUSH1 0x1 SWAP1 JUMP INVALID PUSH1 0xE0 DUP1 PUSH1 0x40 MSTORE PUSH1 0x4 CALLDATASIZE LT ISZERO PUSH2 0x12 JUMPI PUSH0 DUP1 REVERT JUMPDEST PUSH0 SWAP1 PUSH0 CALLDATALOAD PUSH1 0xE0 SHR SWAP1 DUP2 PUSH4 0x1FFC9A7 EQ PUSH2 0x25B6 JUMPI POP DUP1 PUSH4 0x6FDDE03 EQ PUSH2 0x2514 JUMPI DUP1 PUSH4 0x81812FC EQ PUSH2 0x24D8 JUMPI DUP1 PUSH4 0x95EA7B3 EQ PUSH2 0x23EE JUMPI DUP1 PUSH4 0x107046BD EQ PUSH2 0x21A6 JUMPI DUP1 PUSH4 0x22FBF1E8 EQ PUSH2 0x20F8 JUMPI DUP1 PUSH4 0x23B872DD EQ PUSH2 0x20E1 JUMPI DUP1 PUSH4 0x248A9CA3 EQ PUSH2 0x20AE JUMPI DUP1 PUSH4 0x2F2FF15D EQ PUSH2 0x2070 JUMPI DUP1 PUSH4 0x36568ABE EQ PUSH2 0x202C JUMPI DUP1 PUSH4 0x42842E0E EQ PUSH2 0x1FFD JUMPI DUP1 PUSH4 0x47B2A92D EQ PUSH2 0x1A98 JUMPI DUP1 PUSH4 0x49CC994C EQ PUSH2 0x1A5E JUMPI DUP1 PUSH4 0x52E6BC2D EQ PUSH2 0x1A15 JUMPI DUP1 PUSH4 0x5E75514D EQ PUSH2 0x19EB JUMPI DUP1 PUSH4 0x6352211E EQ PUSH2 0x19BB JUMPI DUP1 PUSH4 0x69B04F19 EQ PUSH2 0x1906 JUMPI DUP1 PUSH4 0x6A880D11 EQ PUSH2 0x18C0 JUMPI DUP1 PUSH4 0x70A08231 EQ PUSH2 0x186F JUMPI DUP1 PUSH4 0x7251060A EQ PUSH2 0x70E JUMPI DUP1 PUSH4 0x75B238FC EQ PUSH2 0x6D4 JUMPI DUP1 PUSH4 0x8D01CE2B EQ PUSH2 0x670 JUMPI DUP1 PUSH4 0x91D14854 EQ PUSH2 0x627 JUMPI DUP1 PUSH4 0x95D89B41 EQ PUSH2 0x549 JUMPI DUP1 PUSH4 0xA217FDDF EQ PUSH2 0x52F JUMPI DUP1 PUSH4 0xA22CB465 EQ PUSH2 0x494 JUMPI DUP1 PUSH4 0xB88D4FDE EQ PUSH2 0x427 JUMPI DUP1 PUSH4 0xC87B56DD EQ PUSH2 0x3CE JUMPI DUP1 PUSH4 0xD082E381 EQ PUSH2 0x3B0 JUMPI DUP1 PUSH4 0xD547741F EQ PUSH2 0x368 JUMPI DUP1 PUSH4 0xDBD0B271 EQ PUSH2 0x2E6 JUMPI DUP1 PUSH4 0xE985E9C5 EQ PUSH2 0x28E JUMPI DUP1 PUSH4 0xF8A518ED EQ PUSH2 0x270 JUMPI PUSH4 0xFC69D836 EQ PUSH2 0x194 JUMPI PUSH0 DUP1 REVERT JUMPDEST CALLVALUE PUSH2 0x26D JUMPI PUSH1 0x20 CALLDATASIZE PUSH1 0x3 NOT ADD SLT PUSH2 0x26D JUMPI PUSH1 0x4 CALLDATALOAD PUSH32 0xA49807205CE4D355092EF5A8A18F56E8913CF4A201FBE287825B095693C21775 DUP3 MSTORE PUSH1 0x6 PUSH1 0x20 MSTORE PUSH1 0x40 DUP3 KECCAK256 PUSH1 0x1 DUP1 PUSH1 0xA0 SHL SUB CALLER AND PUSH0 MSTORE PUSH1 0x20 MSTORE PUSH2 0x1F2 PUSH1 0xFF PUSH1 0x40 PUSH0 KECCAK256 SLOAD AND PUSH2 0x288F JUMP JUMPDEST DUP1 DUP3 MSTORE PUSH1 0xA PUSH1 0x20 MSTORE PUSH1 0xFF PUSH1 0x10 PUSH1 0x40 DUP5 KECCAK256 ADD SLOAD AND PUSH1 0x3 DUP2 LT ISZERO PUSH2 0x259 JUMPI PUSH2 0x218 SWAP1 ISZERO PUSH2 0x2AAD JUMP JUMPDEST DUP1 DUP3 MSTORE PUSH1 0xA PUSH1 0x20 MSTORE PUSH1 0x40 DUP3 KECCAK256 PUSH1 0x10 ADD DUP1 SLOAD PUSH1 0xFF NOT AND PUSH1 0x1 OR SWAP1 SSTORE PUSH32 0xFC534544F8ED1B516BF078B4AE88509D8F81F4FAFEFB10E9AAD53E3E1FBCE9BB DUP3 DUP1 LOG2 DUP1 RETURN JUMPDEST PUSH4 0x4E487B71 PUSH1 0xE0 SHL DUP4 MSTORE PUSH1 0x21 PUSH1 0x4 MSTORE PUSH1 0x24 DUP4 REVERT JUMPDEST DUP1 REVERT JUMPDEST POP CALLVALUE PUSH2 0x26D JUMPI DUP1 PUSH1 0x3 NOT CALLDATASIZE ADD SLT PUSH2 0x26D JUMPI PUSH1 0x20 PUSH1 0x7 SLOAD PUSH1 0x40 MLOAD SWAP1 DUP2 MSTORE RETURN JUMPDEST POP CALLVALUE PUSH2 0x26D JUMPI PUSH1 0x40 CALLDATASIZE PUSH1 0x3 NOT ADD SLT PUSH2 0x26D JUMPI PUSH1 0x40 PUSH2 0x2AA PUSH2 0x265F JUMP JUMPDEST SWAP2 PUSH2 0x2B3 PUSH2 0x2675 JUMP JUMPDEST SWAP3 PUSH1 0x1 DUP1 PUSH1 0xA0 SHL SUB AND DUP2 MSTORE PUSH1 0x5 PUSH1 0x20 MSTORE KECCAK256 SWAP1 PUSH1 0x1 DUP1 PUSH1 0xA0 SHL SUB AND PUSH0 MSTORE PUSH1 0x20 MSTORE PUSH1 0x20 PUSH1 0xFF PUSH1 0x40 PUSH0 KECCAK256 SLOAD AND PUSH1 0x40 MLOAD SWAP1 ISZERO ISZERO DUP2 MSTORE RETURN JUMPDEST POP CALLVALUE PUSH2 0x26D JUMPI PUSH1 0x20 CALLDATASIZE PUSH1 0x3 NOT ADD SLT PUSH2 0x26D JUMPI PUSH1 0x1 PUSH1 0x1 PUSH1 0xA0 SHL SUB PUSH2 0x308 PUSH2 0x265F JUMP JUMPDEST AND DUP2 MSTORE PUSH1 0xB PUSH1 0x20 MSTORE PUSH1 0x40 DUP2 KECCAK256 PUSH1 0x40 MLOAD SWAP2 DUP3 PUSH1 0x20 DUP4 SLOAD SWAP2 DUP3 DUP2 MSTORE ADD SWAP3 DUP3 MSTORE PUSH1 0x20 DUP3 KECCAK256 SWAP2 JUMPDEST DUP2 DUP2 LT PUSH2 0x352 JUMPI PUSH2 0x34E DUP6 PUSH2 0x342 DUP2 DUP8 SUB DUP3 PUSH2 0x26C3 JUMP JUMPDEST PUSH1 0x40 MLOAD SWAP2 DUP3 SWAP2 DUP3 PUSH2 0x2856 JUMP JUMPDEST SUB SWAP1 RETURN JUMPDEST DUP3 SLOAD DUP5 MSTORE PUSH1 0x20 SWAP1 SWAP4 ADD SWAP3 PUSH1 0x1 SWAP3 DUP4 ADD SWAP3 ADD PUSH2 0x32B JUMP JUMPDEST POP CALLVALUE PUSH2 0x26D JUMPI PUSH1 0x40 CALLDATASIZE PUSH1 0x3 NOT ADD SLT PUSH2 0x26D JUMPI PUSH2 0x3AC PUSH1 0x4 CALLDATALOAD PUSH2 0x388 PUSH2 0x2675 JUMP JUMPDEST SWAP1 PUSH2 0x3A7 PUSH2 0x3A2 DUP3 PUSH0 MSTORE PUSH1 0x6 PUSH1 0x20 MSTORE PUSH1 0x1 PUSH1 0x40 PUSH0 KECCAK256 ADD SLOAD SWAP1 JUMP JUMPDEST PUSH2 0x2B23 JUMP JUMPDEST PUSH2 0x2CBA JUMP JUMPDEST POP DUP1 RETURN JUMPDEST POP CALLVALUE PUSH2 0x26D JUMPI DUP1 PUSH1 0x3 NOT CALLDATASIZE ADD SLT PUSH2 0x26D JUMPI PUSH1 0x20 PUSH1 0x8 SLOAD PUSH1 0x40 MLOAD SWAP1 DUP2 MSTORE RETURN JUMPDEST CALLVALUE PUSH2 0x423 JUMPI PUSH1 0x20 CALLDATASIZE PUSH1 0x3 NOT ADD SLT PUSH2 0x423 JUMPI PUSH2 0x3EA PUSH1 0x4 CALLDATALOAD PUSH2 0x2AEF JUMP JUMPDEST POP PUSH0 PUSH1 0x40 MLOAD PUSH2 0x3FA PUSH1 0x20 DUP3 PUSH2 0x26C3 JUMP JUMPDEST MSTORE PUSH2 0x34E PUSH1 0x40 MLOAD PUSH2 0x40C PUSH1 0x20 DUP3 PUSH2 0x26C3 JUMP JUMPDEST PUSH0 DUP2 MSTORE PUSH1 0x40 MLOAD SWAP2 DUP3 SWAP2 PUSH1 0x20 DUP4 MSTORE PUSH1 0x20 DUP4 ADD SWAP1 PUSH2 0x263B JUMP JUMPDEST PUSH0 DUP1 REVERT JUMPDEST CALLVALUE PUSH2 0x423 JUMPI PUSH1 0x80 CALLDATASIZE PUSH1 0x3 NOT ADD SLT PUSH2 0x423 JUMPI PUSH2 0x440 PUSH2 0x265F JUMP JUMPDEST PUSH2 0x448 PUSH2 0x2675 JUMP JUMPDEST SWAP1 PUSH1 0x44 CALLDATALOAD PUSH1 0x64 CALLDATALOAD SWAP3 PUSH1 0x1 PUSH1 0x1 PUSH1 0x40 SHL SUB DUP5 GT PUSH2 0x423 JUMPI CALLDATASIZE PUSH1 0x23 DUP6 ADD SLT ISZERO PUSH2 0x423 JUMPI PUSH2 0x480 PUSH2 0x492 SWAP5 CALLDATASIZE SWAP1 PUSH1 0x24 DUP2 PUSH1 0x4 ADD CALLDATALOAD SWAP2 ADD PUSH2 0x2802 JUMP JUMPDEST SWAP3 PUSH2 0x48C DUP4 DUP4 DUP4 PUSH2 0x28D1 JUMP JUMPDEST CALLER PUSH2 0x2D4F JUMP JUMPDEST STOP JUMPDEST CALLVALUE PUSH2 0x423 JUMPI PUSH1 0x40 CALLDATASIZE PUSH1 0x3 NOT ADD SLT PUSH2 0x423 JUMPI PUSH2 0x4AD PUSH2 0x265F JUMP JUMPDEST PUSH1 0x24 CALLDATALOAD SWAP1 DUP2 ISZERO ISZERO DUP1 SWAP3 SUB PUSH2 0x423 JUMPI PUSH1 0x1 PUSH1 0x1 PUSH1 0xA0 SHL SUB AND SWAP1 DUP2 ISZERO PUSH2 0x51C JUMPI CALLER PUSH0 MSTORE PUSH1 0x5 PUSH1 0x20 MSTORE PUSH1 0x40 PUSH0 KECCAK256 DUP3 PUSH0 MSTORE PUSH1 0x20 MSTORE PUSH1 0x40 PUSH0 KECCAK256 PUSH1 0xFF NOT DUP2 SLOAD AND PUSH1 0xFF DUP4 AND OR SWAP1 SSTORE PUSH1 0x40 MLOAD SWAP1 DUP2 MSTORE PUSH32 0x17307EAB39AB6107E8899845AD3D59BD9653F200F220920489CA2B5937696C31 PUSH1 0x20 CALLER SWAP3 LOG3 STOP JUMPDEST POP PUSH4 0xB611743 PUSH1 0xE3 SHL PUSH0 MSTORE PUSH1 0x4 MSTORE PUSH1 0x24 PUSH0 REVERT JUMPDEST CALLVALUE PUSH2 0x423 JUMPI PUSH0 CALLDATASIZE PUSH1 0x3 NOT ADD SLT PUSH2 0x423 JUMPI PUSH1 0x20 PUSH1 0x40 MLOAD PUSH0 DUP2 MSTORE RETURN JUMPDEST CALLVALUE PUSH2 0x423 JUMPI PUSH0 CALLDATASIZE PUSH1 0x3 NOT ADD SLT PUSH2 0x423 JUMPI PUSH1 0x40 MLOAD PUSH0 PUSH1 0x1 SLOAD PUSH2 0x569 DUP2 PUSH2 0x268B JUMP JUMPDEST DUP1 DUP5 MSTORE SWAP1 PUSH1 0x1 DUP2 AND SWAP1 DUP2 ISZERO PUSH2 0x603 JUMPI POP PUSH1 0x1 EQ PUSH2 0x5A5 JUMPI JUMPDEST PUSH2 0x34E DUP4 PUSH2 0x591 DUP2 DUP6 SUB DUP3 PUSH2 0x26C3 JUMP JUMPDEST PUSH1 0x40 MLOAD SWAP2 DUP3 SWAP2 PUSH1 0x20 DUP4 MSTORE PUSH1 0x20 DUP4 ADD SWAP1 PUSH2 0x263B JUMP JUMPDEST PUSH1 0x1 PUSH0 SWAP1 DUP2 MSTORE PUSH32 0xB10E2D527612073B26EECDFD717E6A320CF44B4AFAC2B0732D9FCBE2B7FA0CF6 SWAP4 SWAP3 POP SWAP1 JUMPDEST DUP1 DUP3 LT PUSH2 0x5E9 JUMPI POP SWAP1 SWAP2 POP DUP2 ADD PUSH1 0x20 ADD PUSH2 0x591 PUSH2 0x581 JUMP JUMPDEST SWAP2 SWAP3 PUSH1 0x1 DUP2 PUSH1 0x20 SWAP3 SLOAD DUP4 DUP6 DUP9 ADD ADD MSTORE ADD SWAP2 ADD SWAP1 SWAP3 SWAP2 PUSH2 0x5D1 JUMP JUMPDEST PUSH1 0xFF NOT AND PUSH1 0x20 DUP1 DUP7 ADD SWAP2 SWAP1 SWAP2 MSTORE SWAP2 ISZERO ISZERO PUSH1 0x5 SHL DUP5 ADD SWAP1 SWAP2 ADD SWAP2 POP PUSH2 0x591 SWAP1 POP PUSH2 0x581 JUMP JUMPDEST CALLVALUE PUSH2 0x423 JUMPI PUSH1 0x40 CALLDATASIZE PUSH1 0x3 NOT ADD SLT PUSH2 0x423 JUMPI PUSH2 0x640 PUSH2 0x2675 JUMP JUMPDEST PUSH1 0x4 CALLDATALOAD PUSH0 MSTORE PUSH1 0x6 PUSH1 0x20 MSTORE PUSH1 0x40 PUSH0 KECCAK256 SWAP1 PUSH1 0x1 DUP1 PUSH1 0xA0 SHL SUB AND PUSH0 MSTORE PUSH1 0x20 MSTORE PUSH1 0x20 PUSH1 0xFF PUSH1 0x40 PUSH0 KECCAK256 SLOAD AND PUSH1 0x40 MLOAD SWAP1 ISZERO ISZERO DUP2 MSTORE RETURN JUMPDEST CALLVALUE PUSH2 0x423 JUMPI PUSH1 0x20 CALLDATASIZE PUSH1 0x3 NOT ADD SLT PUSH2 0x423 JUMPI PUSH1 0x4 CALLDATALOAD PUSH0 MSTORE PUSH1 0xC PUSH1 0x20 MSTORE PUSH1 0x40 PUSH0 KECCAK256 PUSH1 0x40 MLOAD SWAP1 DUP2 PUSH1 0x20 DUP3 SLOAD SWAP2 DUP3 DUP2 MSTORE ADD SWAP2 PUSH0 MSTORE PUSH1 0x20 PUSH0 KECCAK256 SWAP1 PUSH0 JUMPDEST DUP2 DUP2 LT PUSH2 0x6BE JUMPI PUSH2 0x34E DUP6 PUSH2 0x342 DUP2 DUP8 SUB DUP3 PUSH2 0x26C3 JUMP JUMPDEST DUP3 SLOAD DUP5 MSTORE PUSH1 0x20 SWAP1 SWAP4 ADD SWAP3 PUSH1 0x1 SWAP3 DUP4 ADD SWAP3 ADD PUSH2 0x6A7 JUMP JUMPDEST CALLVALUE PUSH2 0x423 JUMPI PUSH0 CALLDATASIZE PUSH1 0x3 NOT ADD SLT PUSH2 0x423 JUMPI PUSH1 0x20 PUSH1 0x40 MLOAD PUSH32 0xA49807205CE4D355092EF5A8A18F56E8913CF4A201FBE287825B095693C21775 DUP2 MSTORE RETURN JUMPDEST CALLVALUE PUSH2 0x423 JUMPI PUSH2 0x1C0 CALLDATASIZE PUSH1 0x3 NOT ADD SLT PUSH2 0x423 JUMPI PUSH1 0x4 CALLDATALOAD PUSH1 0x1 PUSH1 0x1 PUSH1 0x40 SHL SUB DUP2 GT PUSH2 0x423 JUMPI PUSH2 0x73F SWAP1 CALLDATASIZE SWAP1 PUSH1 0x4 ADD PUSH2 0x2838 JUMP JUMPDEST PUSH1 0x24 CALLDATALOAD PUSH1 0x1 PUSH1 0x1 PUSH1 0x40 SHL SUB DUP2 GT PUSH2 0x423 JUMPI PUSH2 0x75E SWAP1 CALLDATASIZE SWAP1 PUSH1 0x4 ADD PUSH2 0x2838 JUMP JUMPDEST PUSH1 0x44 CALLDATALOAD PUSH1 0x1 PUSH1 0x1 PUSH1 0x40 SHL SUB DUP2 GT PUSH2 0x423 JUMPI PUSH2 0x77D SWAP1 CALLDATASIZE SWAP1 PUSH1 0x4 ADD PUSH2 0x2838 JUMP JUMPDEST PUSH1 0x64 CALLDATALOAD PUSH1 0x1 PUSH1 0x1 PUSH1 0x40 SHL SUB DUP2 GT PUSH2 0x423 JUMPI PUSH2 0x79C SWAP1 CALLDATASIZE SWAP1 PUSH1 0x4 ADD PUSH2 0x2838 JUMP JUMPDEST PUSH1 0x84 CALLDATALOAD PUSH1 0x1 PUSH1 0x1 PUSH1 0x40 SHL SUB DUP2 GT PUSH2 0x423 JUMPI PUSH2 0x7BB SWAP1 CALLDATASIZE SWAP1 PUSH1 0x4 ADD PUSH2 0x2838 JUMP JUMPDEST PUSH1 0xA4 CALLDATALOAD PUSH1 0x1 PUSH1 0x1 PUSH1 0x40 SHL SUB DUP2 GT PUSH2 0x423 JUMPI PUSH2 0x7DA SWAP1 CALLDATASIZE SWAP1 PUSH1 0x4 ADD PUSH2 0x2838 JUMP JUMPDEST PUSH1 0xC4 CALLDATALOAD PUSH1 0x1 PUSH1 0x1 PUSH1 0x40 SHL SUB DUP2 GT PUSH2 0x423 JUMPI PUSH2 0x7F9 SWAP1 CALLDATASIZE SWAP1 PUSH1 0x4 ADD PUSH2 0x2838 JUMP JUMPDEST PUSH2 0x104 CALLDATALOAD PUSH1 0x1 PUSH1 0x1 PUSH1 0x40 SHL SUB DUP2 GT PUSH2 0x423 JUMPI PUSH2 0x819 SWAP1 CALLDATASIZE SWAP1 PUSH1 0x4 ADD PUSH2 0x2838 JUMP JUMPDEST PUSH2 0x124 CALLDATALOAD PUSH1 0x1 PUSH1 0x1 PUSH1 0x40 SHL SUB DUP2 GT PUSH2 0x423 JUMPI PUSH2 0x839 SWAP1 CALLDATASIZE SWAP1 PUSH1 0x4 ADD PUSH2 0x2838 JUMP JUMPDEST SWAP2 PUSH2 0x144 CALLDATALOAD PUSH1 0x1 PUSH1 0x1 PUSH1 0x40 SHL SUB DUP2 GT PUSH2 0x423 JUMPI PUSH2 0x85A SWAP1 CALLDATASIZE SWAP1 PUSH1 0x4 ADD PUSH2 0x2838 JUMP JUMPDEST SWAP4 PUSH2 0x164 CALLDATALOAD PUSH1 0x1 PUSH1 0x1 PUSH1 0x40 SHL SUB DUP2 GT PUSH2 0x423 JUMPI PUSH2 0x87B SWAP1 CALLDATASIZE SWAP1 PUSH1 0x4 ADD PUSH2 0x2838 JUMP JUMPDEST SWAP6 PUSH2 0x184 CALLDATALOAD PUSH1 0x1 PUSH1 0x1 PUSH1 0x40 SHL SUB DUP2 GT PUSH2 0x423 JUMPI PUSH2 0x89C SWAP1 CALLDATASIZE SWAP1 PUSH1 0x4 ADD PUSH2 0x2838 JUMP JUMPDEST SWAP8 PUSH2 0x1A4 CALLDATALOAD PUSH1 0x1 PUSH1 0x1 PUSH1 0x40 SHL SUB DUP2 GT PUSH2 0x423 JUMPI PUSH2 0x8BD SWAP1 CALLDATASIZE SWAP1 PUSH1 0x4 ADD PUSH2 0x2838 JUMP JUMPDEST CALLER PUSH0 SWAP1 DUP2 MSTORE PUSH32 0x29A7573F8F7DB4FE95A7F9DD76C9355B427198DBC0CAB2864CD3A802FBFD1CDF PUSH1 0x20 MSTORE PUSH1 0x40 SWAP1 KECCAK256 SLOAD SWAP1 SWAP11 SWAP1 PUSH1 0xFF AND ISZERO PUSH2 0x182A JUMPI PUSH2 0x901 PUSH1 0x7 SLOAD PUSH2 0x2A66 JUMP JUMPDEST SWAP12 DUP13 PUSH1 0x7 SSTORE PUSH1 0x40 MLOAD SWAP14 DUP15 PUSH2 0x220 DUP2 ADD SWAP1 DUP2 LT PUSH1 0x1 PUSH1 0x1 PUSH1 0x40 SHL SUB DUP3 GT OR PUSH2 0xFCA JUMPI DUP16 SWAP1 SWAP2 DUP16 PUSH1 0x60 SWAP4 PUSH1 0x40 MSTORE DUP3 MSTORE CALLER PUSH1 0x20 DUP4 ADD MSTORE PUSH1 0x40 DUP3 ADD MSTORE ADD MSTORE PUSH1 0x80 DUP14 ADD MSTORE PUSH1 0xA0 DUP13 ADD MSTORE PUSH1 0xC0 DUP12 ADD MSTORE PUSH1 0xE0 DUP11 ADD MSTORE PUSH2 0x100 DUP10 ADD MSTORE PUSH1 0xE4 CALLDATALOAD PUSH2 0x120 DUP10 ADD MSTORE PUSH2 0x140 DUP9 ADD MSTORE PUSH2 0x160 DUP8 ADD MSTORE PUSH2 0x180 DUP7 ADD MSTORE PUSH2 0x1A0 DUP6 ADD MSTORE PUSH2 0x1C0 DUP5 ADD MSTORE PUSH2 0x1E0 DUP4 ADD MSTORE PUSH0 PUSH2 0x200 DUP4 ADD MSTORE PUSH0 MSTORE PUSH1 0xA PUSH1 0x20 MSTORE PUSH1 0x40 PUSH0 KECCAK256 SWAP1 DUP1 MLOAD DUP3 SSTORE PUSH1 0x1 DUP1 PUSH1 0xA0 SHL SUB PUSH1 0x20 DUP3 ADD MLOAD AND PUSH1 0x1 DUP4 ADD SWAP1 PUSH1 0x1 DUP1 PUSH1 0xA0 SHL SUB AND PUSH1 0x1 PUSH1 0x1 PUSH1 0x60 SHL SUB PUSH1 0xA0 SHL DUP3 SLOAD AND OR SWAP1 SSTORE PUSH1 0x2 DUP3 ADD SWAP2 PUSH1 0x40 DUP3 ADD MLOAD SWAP3 DUP4 MLOAD PUSH1 0x1 PUSH1 0x1 PUSH1 0x40 SHL SUB DUP2 GT PUSH2 0xFCA JUMPI PUSH2 0x9E9 DUP3 SLOAD PUSH2 0x268B JUMP JUMPDEST PUSH1 0x1F DUP2 GT PUSH2 0x17E5 JUMPI JUMPDEST POP PUSH1 0x20 SWAP5 PUSH1 0x1F DUP3 GT PUSH1 0x1 EQ PUSH2 0x1784 JUMPI SWAP5 DUP2 SWAP3 SWAP4 SWAP5 SWAP6 PUSH0 SWAP3 PUSH2 0x1779 JUMPI JUMPDEST POP POP DUP2 PUSH1 0x1 SHL SWAP2 PUSH0 NOT SWAP1 PUSH1 0x3 SHL SHR NOT AND OR SWAP1 SSTORE JUMPDEST PUSH1 0x3 DUP2 ADD SWAP2 PUSH1 0x60 DUP2 ADD MLOAD SWAP3 DUP4 MLOAD PUSH1 0x1 PUSH1 0x1 PUSH1 0x40 SHL SUB DUP2 GT PUSH2 0xFCA JUMPI PUSH2 0xA47 DUP3 SLOAD PUSH2 0x268B JUMP JUMPDEST PUSH1 0x1F DUP2 GT PUSH2 0x1734 JUMPI JUMPDEST POP PUSH1 0x20 SWAP5 PUSH1 0x1F DUP3 GT PUSH1 0x1 EQ PUSH2 0x16D3 JUMPI SWAP5 DUP2 SWAP3 SWAP4 SWAP5 SWAP6 PUSH0 SWAP3 PUSH2 0x16C8 JUMPI JUMPDEST POP POP DUP2 PUSH1 0x1 SHL SWAP2 PUSH0 NOT SWAP1 PUSH1 0x3 SHL SHR NOT AND OR SWAP1 SSTORE JUMPDEST PUSH1 0x4 DUP3 ADD SWAP2 PUSH1 0x80 DUP3 ADD MLOAD SWAP3 DUP4 MLOAD PUSH1 0x1 PUSH1 0x1 PUSH1 0x40 SHL SUB DUP2 GT PUSH2 0xFCA JUMPI PUSH2 0xAA5 DUP3 SLOAD PUSH2 0x268B JUMP JUMPDEST PUSH1 0x1F DUP2 GT PUSH2 0x1683 JUMPI JUMPDEST POP PUSH1 0x20 SWAP5 PUSH1 0x1F DUP3 GT PUSH1 0x1 EQ PUSH2 0x1622 JUMPI SWAP5 DUP2 SWAP3 SWAP4 SWAP5 SWAP6 PUSH0 SWAP3 PUSH2 0x1617 JUMPI JUMPDEST POP POP DUP2 PUSH1 0x1 SHL SWAP2 PUSH0 NOT SWAP1 PUSH1 0x3 SHL SHR NOT AND OR SWAP1 SSTORE JUMPDEST PUSH1 0x5 DUP2 ADD SWAP2 PUSH1 0xA0 DUP2 ADD MLOAD SWAP3 DUP4 MLOAD PUSH1 0x1 PUSH1 0x1 PUSH1 0x40 SHL SUB DUP2 GT PUSH2 0xFCA JUMPI PUSH2 0xB03 DUP3 SLOAD PUSH2 0x268B JUMP JUMPDEST PUSH1 0x1F DUP2 GT PUSH2 0x15D2 JUMPI JUMPDEST POP PUSH1 0x20 SWAP5 PUSH1 0x1F DUP3 GT PUSH1 0x1 EQ PUSH2 0x1571 JUMPI SWAP5 DUP2 SWAP3 SWAP4 SWAP5 SWAP6 PUSH0 SWAP3 PUSH2 0x1566 JUMPI JUMPDEST POP POP DUP2 PUSH1 0x1 SHL SWAP2 PUSH0 NOT SWAP1 PUSH1 0x3 SHL SHR NOT AND OR SWAP1 SSTORE JUMPDEST PUSH1 0x6 DUP3 ADD SWAP2 PUSH1 0xC0 DUP3 ADD MLOAD SWAP3 DUP4 MLOAD PUSH1 0x1 PUSH1 0x1 PUSH1 0x40 SHL SUB DUP2 GT PUSH2 0xFCA JUMPI PUSH2 0xB61 DUP3 SLOAD PUSH2 0x268B JUMP JUMPDEST PUSH1 0x1F DUP2 GT PUSH2 0x1521 JUMPI JUMPDEST POP PUSH1 0x20 SWAP5 PUSH1 0x1F DUP3 GT PUSH1 0x1 EQ PUSH2 0x14C0 JUMPI SWAP5 DUP2 SWAP3 SWAP4 SWAP5 SWAP6 PUSH0 SWAP3 PUSH2 0x14B5 JUMPI JUMPDEST POP POP DUP2 PUSH1 0x1 SHL SWAP2 PUSH0 NOT SWAP1 PUSH1 0x3 SHL SHR NOT AND OR SWAP1 SSTORE JUMPDEST PUSH1 0x7 DUP2 ADD SWAP2 PUSH1 0xE0 DUP2 ADD MLOAD SWAP3 DUP4 MLOAD PUSH1 0x1 PUSH1 0x1 PUSH1 0x40 SHL SUB DUP2 GT PUSH2 0xFCA JUMPI PUSH2 0xBBF DUP3 SLOAD PUSH2 0x268B JUMP JUMPDEST PUSH1 0x1F DUP2 GT PUSH2 0x1470 JUMPI JUMPDEST POP PUSH1 0x20 SWAP5 PUSH1 0x1F DUP3 GT PUSH1 0x1 EQ PUSH2 0x140F JUMPI SWAP5 DUP2 SWAP3 SWAP4 SWAP5 SWAP6 PUSH0 SWAP3 PUSH2 0x1404 JUMPI JUMPDEST POP POP DUP2 PUSH1 0x1 SHL SWAP2 PUSH0 NOT SWAP1 PUSH1 0x3 SHL SHR NOT AND OR SWAP1 SSTORE JUMPDEST PUSH1 0x8 DUP3 ADD SWAP2 PUSH2 0x100 DUP3 ADD MLOAD SWAP3 DUP4 MLOAD PUSH1 0x1 PUSH1 0x1 PUSH1 0x40 SHL SUB DUP2 GT PUSH2 0xFCA JUMPI PUSH2 0xC1E DUP3 SLOAD PUSH2 0x268B JUMP JUMPDEST PUSH1 0x1F DUP2 GT PUSH2 0x13BF JUMPI JUMPDEST POP PUSH1 0x20 SWAP5 PUSH1 0x1F DUP3 GT PUSH1 0x1 EQ PUSH2 0x135E JUMPI SWAP5 DUP2 SWAP3 SWAP4 SWAP5 SWAP6 PUSH0 SWAP3 PUSH2 0x1353 JUMPI JUMPDEST POP POP DUP2 PUSH1 0x1 SHL SWAP2 PUSH0 NOT SWAP1 PUSH1 0x3 SHL SHR NOT AND OR SWAP1 SSTORE JUMPDEST PUSH2 0x120 DUP3 ADD MLOAD PUSH1 0x9 DUP3 ADD SSTORE PUSH1 0xA DUP2 ADD SWAP2 PUSH2 0x140 DUP2 ADD MLOAD SWAP3 DUP4 MLOAD PUSH1 0x1 PUSH1 0x1 PUSH1 0x40 SHL SUB DUP2 GT PUSH2 0xFCA JUMPI PUSH2 0xC88 DUP3 SLOAD PUSH2 0x268B JUMP JUMPDEST PUSH1 0x1F DUP2 GT PUSH2 0x130E JUMPI JUMPDEST POP PUSH1 0x20 SWAP5 PUSH1 0x1F DUP3 GT PUSH1 0x1 EQ PUSH2 0x12AD JUMPI SWAP5 DUP2 SWAP3 SWAP4 SWAP5 SWAP6 PUSH0 SWAP3 PUSH2 0x12A2 JUMPI JUMPDEST POP POP DUP2 PUSH1 0x1 SHL SWAP2 PUSH0 NOT SWAP1 PUSH1 0x3 SHL SHR NOT AND OR SWAP1 SSTORE JUMPDEST PUSH1 0xB DUP3 ADD SWAP2 PUSH2 0x160 DUP3 ADD MLOAD SWAP3 DUP4 MLOAD PUSH1 0x1 PUSH1 0x1 PUSH1 0x40 SHL SUB DUP2 GT PUSH2 0xFCA JUMPI PUSH2 0xCE7 DUP3 SLOAD PUSH2 0x268B JUMP JUMPDEST PUSH1 0x1F DUP2 GT PUSH2 0x125D JUMPI JUMPDEST POP PUSH1 0x20 SWAP5 PUSH1 0x1F DUP3 GT PUSH1 0x1 EQ PUSH2 0x11FC JUMPI SWAP5 DUP2 SWAP3 SWAP4 SWAP5 SWAP6 PUSH0 SWAP3 PUSH2 0x11F1 JUMPI JUMPDEST POP POP DUP2 PUSH1 0x1 SHL SWAP2 PUSH0 NOT SWAP1 PUSH1 0x3 SHL SHR NOT AND OR SWAP1 SSTORE JUMPDEST PUSH1 0xC DUP2 ADD SWAP2 PUSH2 0x180 DUP2 ADD MLOAD SWAP3 DUP4 MLOAD PUSH1 0x1 PUSH1 0x1 PUSH1 0x40 SHL SUB DUP2 GT PUSH2 0xFCA JUMPI PUSH2 0xD46 DUP3 SLOAD PUSH2 0x268B JUMP JUMPDEST PUSH1 0x1F DUP2 GT PUSH2 0x11AC JUMPI JUMPDEST POP PUSH1 0x20 SWAP5 PUSH1 0x1F DUP3 GT PUSH1 0x1 EQ PUSH2 0x114B JUMPI SWAP5 DUP2 SWAP3 SWAP4 SWAP5 SWAP6 PUSH0 SWAP3 PUSH2 0x1140 JUMPI JUMPDEST POP POP DUP2 PUSH1 0x1 SHL SWAP2 PUSH0 NOT SWAP1 PUSH1 0x3 SHL SHR NOT AND OR SWAP1 SSTORE JUMPDEST PUSH1 0xD DUP3 ADD SWAP2 PUSH2 0x1A0 DUP3 ADD MLOAD SWAP3 DUP4 MLOAD PUSH1 0x1 PUSH1 0x1 PUSH1 0x40 SHL SUB DUP2 GT PUSH2 0xFCA JUMPI PUSH2 0xDA5 DUP3 SLOAD PUSH2 0x268B JUMP JUMPDEST PUSH1 0x1F DUP2 GT PUSH2 0x10FB JUMPI JUMPDEST POP PUSH1 0x20 SWAP5 PUSH1 0x1F DUP3 GT PUSH1 0x1 EQ PUSH2 0x109A JUMPI SWAP5 DUP2 SWAP3 SWAP4 SWAP5 SWAP6 PUSH0 SWAP3 PUSH2 0x108F JUMPI JUMPDEST POP POP DUP2 PUSH1 0x1 SHL SWAP2 PUSH0 NOT SWAP1 PUSH1 0x3 SHL SHR NOT AND OR SWAP1 SSTORE JUMPDEST PUSH1 0xE DUP2 ADD SWAP2 PUSH2 0x1C0 DUP2 ADD MLOAD SWAP3 DUP4 MLOAD PUSH1 0x1 PUSH1 0x1 PUSH1 0x40 SHL SUB DUP2 GT PUSH2 0xFCA JUMPI PUSH2 0xE04 DUP3 SLOAD PUSH2 0x268B JUMP JUMPDEST PUSH1 0x1F DUP2 GT PUSH2 0x104A JUMPI JUMPDEST POP PUSH1 0x20 SWAP5 PUSH1 0x1F DUP3 GT PUSH1 0x1 EQ PUSH2 0xFE9 JUMPI SWAP5 DUP2 SWAP3 SWAP4 SWAP5 SWAP6 PUSH0 SWAP3 PUSH2 0xFDE JUMPI JUMPDEST POP POP DUP2 PUSH1 0x1 SHL SWAP2 PUSH0 NOT SWAP1 PUSH1 0x3 SHL SHR NOT AND OR SWAP1 SSTORE JUMPDEST PUSH1 0xF DUP3 ADD SWAP2 PUSH2 0x1E0 DUP3 ADD MLOAD SWAP3 DUP4 MLOAD PUSH1 0x1 PUSH1 0x1 PUSH1 0x40 SHL SUB DUP2 GT PUSH2 0xFCA JUMPI PUSH2 0xE63 DUP3 SLOAD PUSH2 0x268B JUMP JUMPDEST PUSH1 0x1F DUP2 GT PUSH2 0xF85 JUMPI JUMPDEST POP PUSH1 0x20 PUSH1 0x1F DUP3 GT PUSH1 0x1 EQ PUSH2 0xF1B JUMPI SWAP1 DUP1 PUSH1 0x10 SWAP5 SWAP4 SWAP3 PUSH2 0x200 SWAP7 SWAP8 PUSH0 SWAP3 PUSH2 0xF10 JUMPI JUMPDEST POP POP DUP2 PUSH1 0x1 SHL SWAP2 PUSH0 NOT SWAP1 PUSH1 0x3 SHL SHR NOT AND OR SWAP1 SSTORE JUMPDEST ADD SWAP2 ADD MLOAD PUSH1 0x3 DUP2 LT ISZERO PUSH2 0xEFC JUMPI PUSH1 0xFF DUP1 NOT DUP4 SLOAD AND SWAP2 AND OR SWAP1 SSTORE CALLER PUSH0 MSTORE PUSH1 0xB PUSH1 0x20 MSTORE PUSH2 0xED2 PUSH1 0x40 PUSH0 KECCAK256 PUSH1 0x7 SLOAD SWAP1 PUSH2 0x2A74 JUMP JUMPDEST CALLER PUSH1 0x7 SLOAD PUSH32 0x22EB44677349043FAA70AE1C857BC016D223F2D92E34FFDE97179347F18C8D5D PUSH0 DUP1 LOG3 STOP JUMPDEST PUSH4 0x4E487B71 PUSH1 0xE0 SHL PUSH0 MSTORE PUSH1 0x21 PUSH1 0x4 MSTORE PUSH1 0x24 PUSH0 REVERT JUMPDEST ADD MLOAD SWAP1 POP DUP8 DUP1 PUSH2 0xE8D JUMP JUMPDEST PUSH1 0x1F NOT DUP3 AND SWAP6 DUP4 PUSH0 MSTORE DUP2 PUSH0 KECCAK256 SWAP7 PUSH0 JUMPDEST DUP2 DUP2 LT PUSH2 0xF6D JUMPI POP SWAP7 PUSH1 0x1 SWAP3 DUP5 SWAP3 PUSH1 0x10 SWAP8 SWAP7 SWAP6 PUSH2 0x200 SWAP10 SWAP11 LT PUSH2 0xF55 JUMPI JUMPDEST POP POP POP DUP2 SHL ADD SWAP1 SSTORE PUSH2 0xEA1 JUMP JUMPDEST ADD MLOAD PUSH0 NOT PUSH1 0xF8 DUP5 PUSH1 0x3 SHL AND SHR NOT AND SWAP1 SSTORE DUP8 DUP1 DUP1 PUSH2 0xF48 JUMP JUMPDEST DUP4 DUP4 ADD MLOAD DUP10 SSTORE PUSH1 0x1 SWAP1 SWAP9 ADD SWAP8 PUSH1 0x20 SWAP4 DUP5 ADD SWAP4 ADD PUSH2 0xF2A JUMP JUMPDEST DUP3 PUSH0 MSTORE PUSH1 0x20 PUSH0 KECCAK256 PUSH1 0x1F DUP4 ADD PUSH1 0x5 SHR DUP2 ADD SWAP2 PUSH1 0x20 DUP5 LT PUSH2 0xFC0 JUMPI JUMPDEST PUSH1 0x1F ADD PUSH1 0x5 SHR ADD SWAP1 JUMPDEST DUP2 DUP2 LT PUSH2 0xFB5 JUMPI POP PUSH2 0xE6C JUMP JUMPDEST PUSH0 DUP2 SSTORE PUSH1 0x1 ADD PUSH2 0xFA8 JUMP JUMPDEST SWAP1 SWAP2 POP DUP2 SWAP1 PUSH2 0xF9F JUMP JUMPDEST PUSH4 0x4E487B71 PUSH1 0xE0 SHL PUSH0 MSTORE PUSH1 0x41 PUSH1 0x4 MSTORE PUSH1 0x24 PUSH0 REVERT JUMPDEST ADD MLOAD SWAP1 POP DUP6 DUP1 PUSH2 0xE29 JUMP JUMPDEST PUSH1 0x1F NOT DUP3 AND SWAP6 DUP4 PUSH0 MSTORE DUP1 PUSH0 KECCAK256 SWAP2 PUSH0 JUMPDEST DUP9 DUP2 LT PUSH2 0x1032 JUMPI POP DUP4 PUSH1 0x1 SWAP6 SWAP7 SWAP8 SWAP9 LT PUSH2 0x101A JUMPI JUMPDEST POP POP POP DUP2 SHL ADD SWAP1 SSTORE PUSH2 0xE3D JUMP JUMPDEST ADD MLOAD PUSH0 NOT PUSH1 0xF8 DUP5 PUSH1 0x3 SHL AND SHR NOT AND SWAP1 SSTORE DUP6 DUP1 DUP1 PUSH2 0x100D JUMP JUMPDEST SWAP2 SWAP3 PUSH1 0x20 PUSH1 0x1 DUP2 SWAP3 DUP7 DUP6 ADD MLOAD DUP2 SSTORE ADD SWAP5 ADD SWAP3 ADD PUSH2 0xFF8 JUMP JUMPDEST DUP3 PUSH0 MSTORE PUSH1 0x20 PUSH0 KECCAK256 PUSH1 0x1F DUP4 ADD PUSH1 0x5 SHR DUP2 ADD SWAP2 PUSH1 0x20 DUP5 LT PUSH2 0x1085 JUMPI JUMPDEST PUSH1 0x1F ADD PUSH1 0x5 SHR ADD SWAP1 JUMPDEST DUP2 DUP2 LT PUSH2 0x107A JUMPI POP PUSH2 0xE0D JUMP JUMPDEST PUSH0 DUP2 SSTORE PUSH1 0x1 ADD PUSH2 0x106D JUMP JUMPDEST SWAP1 SWAP2 POP DUP2 SWAP1 PUSH2 0x1064 JUMP JUMPDEST ADD MLOAD SWAP1 POP DUP6 DUP1 PUSH2 0xDCA JUMP JUMPDEST PUSH1 0x1F NOT DUP3 AND SWAP6 DUP4 PUSH0 MSTORE DUP1 PUSH0 KECCAK256 SWAP2 PUSH0 JUMPDEST DUP9 DUP2 LT PUSH2 0x10E3 JUMPI POP DUP4 PUSH1 0x1 SWAP6 SWAP7 SWAP8 SWAP9 LT PUSH2 0x10CB JUMPI JUMPDEST POP POP POP DUP2 SHL ADD SWAP1 SSTORE PUSH2 0xDDE JUMP JUMPDEST ADD MLOAD PUSH0 NOT PUSH1 0xF8 DUP5 PUSH1 0x3 SHL AND SHR NOT AND SWAP1 SSTORE DUP6 DUP1 DUP1 PUSH2 0x10BE JUMP JUMPDEST SWAP2 SWAP3 PUSH1 0x20 PUSH1 0x1 DUP2 SWAP3 DUP7 DUP6 ADD MLOAD DUP2 SSTORE ADD SWAP5 ADD SWAP3 ADD PUSH2 0x10A9 JUMP JUMPDEST DUP3 PUSH0 MSTORE PUSH1 0x20 PUSH0 KECCAK256 PUSH1 0x1F DUP4 ADD PUSH1 0x5 SHR DUP2 ADD SWAP2 PUSH1 0x20 DUP5 LT PUSH2 0x1136 JUMPI JUMPDEST PUSH1 0x1F ADD PUSH1 0x5 SHR ADD SWAP1 JUMPDEST DUP2 DUP2 LT PUSH2 0x112B JUMPI POP PUSH2 0xDAE JUMP JUMPDEST PUSH0 DUP2 SSTORE PUSH1 0x1 ADD PUSH2 0x111E JUMP JUMPDEST SWAP1 SWAP2 POP DUP2 SWAP1 PUSH2 0x1115 JUMP JUMPDEST ADD MLOAD SWAP1 POP DUP6 DUP1 PUSH2 0xD6B JUMP JUMPDEST PUSH1 0x1F NOT DUP3 AND SWAP6 DUP4 PUSH0 MSTORE DUP1 PUSH0 KECCAK256 SWAP2 PUSH0 JUMPDEST DUP9 DUP2 LT PUSH2 0x1194 JUMPI POP DUP4 PUSH1 0x1 SWAP6 SWAP7 SWAP8 SWAP9 LT PUSH2 0x117C JUMPI JUMPDEST POP POP POP DUP2 SHL ADD SWAP1 SSTORE PUSH2 0xD7F JUMP JUMPDEST ADD MLOAD PUSH0 NOT PUSH1 0xF8 DUP5 PUSH1 0x3 SHL AND SHR NOT AND SWAP1 SSTORE DUP6 DUP1 DUP1 PUSH2 0x116F JUMP JUMPDEST SWAP2 SWAP3 PUSH1 0x20 PUSH1 0x1 DUP2 SWAP3 DUP7 DUP6 ADD MLOAD DUP2 SSTORE ADD SWAP5 ADD SWAP3 ADD PUSH2 0x115A JUMP JUMPDEST DUP3 PUSH0 MSTORE PUSH1 0x20 PUSH0 KECCAK256 PUSH1 0x1F DUP4 ADD PUSH1 0x5 SHR DUP2 ADD SWAP2 PUSH1 0x20 DUP5 LT PUSH2 0x11E7 JUMPI JUMPDEST PUSH1 0x1F ADD PUSH1 0x5 SHR ADD SWAP1 JUMPDEST DUP2 DUP2 LT PUSH2 0x11DC JUMPI POP PUSH2 0xD4F JUMP JUMPDEST PUSH0 DUP2 SSTORE PUSH1 0x1 ADD PUSH2 0x11CF JUMP JUMPDEST SWAP1 SWAP2 POP DUP2 SWAP1 PUSH2 0x11C6 JUMP JUMPDEST ADD MLOAD SWAP1 POP DUP6 DUP1 PUSH2 0xD0C JUMP JUMPDEST PUSH1 0x1F NOT DUP3 AND SWAP6 DUP4 PUSH0 MSTORE DUP1 PUSH0 KECCAK256 SWAP2 PUSH0 JUMPDEST DUP9 DUP2 LT PUSH2 0x1245 JUMPI POP DUP4 PUSH1 0x1 SWAP6 SWAP7 SWAP8 SWAP9 LT PUSH2 0x122D JUMPI JUMPDEST POP POP POP DUP2 SHL ADD SWAP1 SSTORE PUSH2 0xD20 JUMP JUMPDEST ADD MLOAD PUSH0 NOT PUSH1 0xF8 DUP5 PUSH1 0x3 SHL AND SHR NOT AND SWAP1 SSTORE DUP6 DUP1 DUP1 PUSH2 0x1220 JUMP JUMPDEST SWAP2 SWAP3 PUSH1 0x20 PUSH1 0x1 DUP2 SWAP3 DUP7 DUP6 ADD MLOAD DUP2 SSTORE ADD SWAP5 ADD SWAP3 ADD PUSH2 0x120B JUMP JUMPDEST DUP3 PUSH0 MSTORE PUSH1 0x20 PUSH0 KECCAK256 PUSH1 0x1F DUP4 ADD PUSH1 0x5 SHR DUP2 ADD SWAP2 PUSH1 0x20 DUP5 LT PUSH2 0x1298 JUMPI JUMPDEST PUSH1 0x1F ADD PUSH1 0x5 SHR ADD SWAP1 JUMPDEST DUP2 DUP2 LT PUSH2 0x128D JUMPI POP PUSH2 0xCF0 JUMP JUMPDEST PUSH0 DUP2 SSTORE PUSH1 0x1 ADD PUSH2 0x1280 JUMP JUMPDEST SWAP1 SWAP2 POP DUP2 SWAP1 PUSH2 0x1277 JUMP JUMPDEST ADD MLOAD SWAP1 POP DUP6 DUP1 PUSH2 0xCAD JUMP JUMPDEST PUSH1 0x1F NOT DUP3 AND SWAP6 DUP4 PUSH0 MSTORE DUP1 PUSH0 KECCAK256 SWAP2 PUSH0 JUMPDEST DUP9 DUP2 LT PUSH2 0x12F6 JUMPI POP DUP4 PUSH1 0x1 SWAP6 SWAP7 SWAP8 SWAP9 LT PUSH2 0x12DE JUMPI JUMPDEST POP POP POP DUP2 SHL ADD SWAP1 SSTORE PUSH2 0xCC1 JUMP JUMPDEST ADD MLOAD PUSH0 NOT PUSH1 0xF8 DUP5 PUSH1 0x3 SHL AND SHR NOT AND SWAP1 SSTORE DUP6 DUP1 DUP1 PUSH2 0x12D1 JUMP JUMPDEST SWAP2 SWAP3 PUSH1 0x20 PUSH1 0x1 DUP2 SWAP3 DUP7 DUP6 ADD MLOAD DUP2 SSTORE ADD SWAP5 ADD SWAP3 ADD PUSH2 0x12BC JUMP JUMPDEST DUP3 PUSH0 MSTORE PUSH1 0x20 PUSH0 KECCAK256 PUSH1 0x1F DUP4 ADD PUSH1 0x5 SHR DUP2 ADD SWAP2 PUSH1 0x20 DUP5 LT PUSH2 0x1349 JUMPI JUMPDEST PUSH1 0x1F ADD PUSH1 0x5 SHR ADD SWAP1 JUMPDEST DUP2 DUP2 LT PUSH2 0x133E JUMPI POP PUSH2 0xC91 JUMP JUMPDEST PUSH0 DUP2 SSTORE PUSH1 0x1 ADD PUSH2 0x1331 JUMP JUMPDEST SWAP1 SWAP2 POP DUP2 SWAP1 PUSH2 0x1328 JUMP JUMPDEST ADD MLOAD SWAP1 POP DUP6 DUP1 PUSH2 0xC43 JUMP JUMPDEST PUSH1 0x1F NOT DUP3 AND SWAP6 DUP4 PUSH0 MSTORE DUP1 PUSH0 KECCAK256 SWAP2 PUSH0 JUMPDEST DUP9 DUP2 LT PUSH2 0x13A7 JUMPI POP DUP4 PUSH1 0x1 SWAP6 SWAP7 SWAP8 SWAP9 LT PUSH2 0x138F JUMPI JUMPDEST POP POP POP DUP2 SHL ADD SWAP1 SSTORE PUSH2 0xC57 JUMP JUMPDEST ADD MLOAD PUSH0 NOT PUSH1 0xF8 DUP5 PUSH1 0x3 SHL AND SHR NOT AND SWAP1 SSTORE DUP6 DUP1 DUP1 PUSH2 0x1382 JUMP JUMPDEST SWAP2 SWAP3 PUSH1 0x20 PUSH1 0x1 DUP2 SWAP3 DUP7 DUP6 ADD MLOAD DUP2 SSTORE ADD SWAP5 ADD SWAP3 ADD PUSH2 0x136D JUMP JUMPDEST DUP3 PUSH0 MSTORE PUSH1 0x20 PUSH0 KECCAK256 PUSH1 0x1F DUP4 ADD PUSH1 0x5 SHR DUP2 ADD SWAP2 PUSH1 0x20 DUP5 LT PUSH2 0x13FA JUMPI JUMPDEST PUSH1 0x1F ADD PUSH1 0x5 SHR ADD SWAP1 JUMPDEST DUP2 DUP2 LT PUSH2 0x13EF JUMPI POP PUSH2 0xC27 JUMP JUMPDEST PUSH0 DUP2 SSTORE PUSH1 0x1 ADD PUSH2 0x13E2 JUMP JUMPDEST SWAP1 SWAP2 POP DUP2 SWAP1 PUSH2 0x13D9 JUMP JUMPDEST ADD MLOAD SWAP1 POP DUP6 DUP1 PUSH2 0xBE4 JUMP JUMPDEST PUSH1 0x1F NOT DUP3 AND SWAP6 DUP4 PUSH0 MSTORE DUP1 PUSH0 KECCAK256 SWAP2 PUSH0 JUMPDEST DUP9 DUP2 LT PUSH2 0x1458 JUMPI POP DUP4 PUSH1 0x1 SWAP6 SWAP7 SWAP8 SWAP9 LT PUSH2 0x1440 JUMPI JUMPDEST POP POP POP DUP2 SHL ADD SWAP1 SSTORE PUSH2 0xBF8 JUMP JUMPDEST ADD MLOAD PUSH0 NOT PUSH1 0xF8 DUP5 PUSH1 0x3 SHL AND SHR NOT AND SWAP1 SSTORE DUP6 DUP1 DUP1 PUSH2 0x1433 JUMP JUMPDEST SWAP2 SWAP3 PUSH1 0x20 PUSH1 0x1 DUP2 SWAP3 DUP7 DUP6 ADD MLOAD DUP2 SSTORE ADD SWAP5 ADD SWAP3 ADD PUSH2 0x141E JUMP JUMPDEST DUP3 PUSH0 MSTORE PUSH1 0x20 PUSH0 KECCAK256 PUSH1 0x1F DUP4 ADD PUSH1 0x5 SHR DUP2 ADD SWAP2 PUSH1 0x20 DUP5 LT PUSH2 0x14AB JUMPI JUMPDEST PUSH1 0x1F ADD PUSH1 0x5 SHR ADD SWAP1 JUMPDEST DUP2 DUP2 LT PUSH2 0x14A0 JUMPI POP PUSH2 0xBC8 JUMP JUMPDEST PUSH0 DUP2 SSTORE PUSH1 0x1 ADD PUSH2 0x1493 JUMP JUMPDEST SWAP1 SWAP2 POP DUP2 SWAP1 PUSH2 0x148A JUMP JUMPDEST ADD MLOAD SWAP1 POP DUP6 DUP1 PUSH2 0xB86 JUMP JUMPDEST PUSH1 0x1F NOT DUP3 AND SWAP6 DUP4 PUSH0 MSTORE DUP1 PUSH0 KECCAK256 SWAP2 PUSH0 JUMPDEST DUP9 DUP2 LT PUSH2 0x1509 JUMPI POP DUP4 PUSH1 0x1 SWAP6 SWAP7 SWAP8 SWAP9 LT PUSH2 0x14F1 JUMPI JUMPDEST POP POP POP DUP2 SHL ADD SWAP1 SSTORE PUSH2 0xB9A JUMP JUMPDEST ADD MLOAD PUSH0 NOT PUSH1 0xF8 DUP5 PUSH1 0x3 SHL AND SHR NOT AND SWAP1 SSTORE DUP6 DUP1 DUP1 PUSH2 0x14E4 JUMP JUMPDEST SWAP2 SWAP3 PUSH1 0x20 PUSH1 0x1 DUP2 SWAP3 DUP7 DUP6 ADD MLOAD DUP2 SSTORE ADD SWAP5 ADD SWAP3 ADD PUSH2 0x14CF JUMP JUMPDEST DUP3 PUSH0 MSTORE PUSH1 0x20 PUSH0 KECCAK256 PUSH1 0x1F DUP4 ADD PUSH1 0x5 SHR DUP2 ADD SWAP2 PUSH1 0x20 DUP5 LT PUSH2 0x155C JUMPI JUMPDEST PUSH1 0x1F ADD PUSH1 0x5 SHR ADD SWAP1 JUMPDEST DUP2 DUP2 LT PUSH2 0x1551 JUMPI POP PUSH2 0xB6A JUMP JUMPDEST PUSH0 DUP2 SSTORE PUSH1 0x1 ADD PUSH2 0x1544 JUMP JUMPDEST SWAP1 SWAP2 POP DUP2 SWAP1 PUSH2 0x153B JUMP JUMPDEST ADD MLOAD SWAP1 POP DUP6 DUP1 PUSH2 0xB28 JUMP JUMPDEST PUSH1 0x1F NOT DUP3 AND SWAP6 DUP4 PUSH0 MSTORE DUP1 PUSH0 KECCAK256 SWAP2 PUSH0 JUMPDEST DUP9 DUP2 LT PUSH2 0x15BA JUMPI POP DUP4 PUSH1 0x1 SWAP6 SWAP7 SWAP8 SWAP9 LT PUSH2 0x15A2 JUMPI JUMPDEST POP POP POP DUP2 SHL ADD SWAP1 SSTORE PUSH2 0xB3C JUMP JUMPDEST ADD MLOAD PUSH0 NOT PUSH1 0xF8 DUP5 PUSH1 0x3 SHL AND SHR NOT AND SWAP1 SSTORE DUP6 DUP1 DUP1 PUSH2 0x1595 JUMP JUMPDEST SWAP2 SWAP3 PUSH1 0x20 PUSH1 0x1 DUP2 SWAP3 DUP7 DUP6 ADD MLOAD DUP2 SSTORE ADD SWAP5 ADD SWAP3 ADD PUSH2 0x1580 JUMP JUMPDEST DUP3 PUSH0 MSTORE PUSH1 0x20 PUSH0 KECCAK256 PUSH1 0x1F DUP4 ADD PUSH1 0x5 SHR DUP2 ADD SWAP2 PUSH1 0x20 DUP5 LT PUSH2 0x160D JUMPI JUMPDEST PUSH1 0x1F ADD PUSH1 0x5 SHR ADD SWAP1 JUMPDEST DUP2 DUP2 LT PUSH2 0x1602 JUMPI POP PUSH2 0xB0C JUMP JUMPDEST PUSH0 DUP2 SSTORE PUSH1 0x1 ADD PUSH2 0x15F5 JUMP JUMPDEST SWAP1 SWAP2 POP DUP2 SWAP1 PUSH2 0x15EC JUMP JUMPDEST ADD MLOAD SWAP1 POP DUP6 DUP1 PUSH2 0xACA JUMP JUMPDEST PUSH1 0x1F NOT DUP3 AND SWAP6 DUP4 PUSH0 MSTORE DUP1 PUSH0 KECCAK256 SWAP2 PUSH0 JUMPDEST DUP9 DUP2 LT PUSH2 0x166B JUMPI POP DUP4 PUSH1 0x1 SWAP6 SWAP7 SWAP8 SWAP9 LT PUSH2 0x1653 JUMPI JUMPDEST POP POP POP DUP2 SHL ADD SWAP1 SSTORE PUSH2 0xADE JUMP JUMPDEST ADD MLOAD PUSH0 NOT PUSH1 0xF8 DUP5 PUSH1 0x3 SHL AND SHR NOT AND SWAP1 SSTORE DUP6 DUP1 DUP1 PUSH2 0x1646 JUMP JUMPDEST SWAP2 SWAP3 PUSH1 0x20 PUSH1 0x1 DUP2 SWAP3 DUP7 DUP6 ADD MLOAD DUP2 SSTORE ADD SWAP5 ADD SWAP3 ADD PUSH2 0x1631 JUMP JUMPDEST DUP3 PUSH0 MSTORE PUSH1 0x20 PUSH0 KECCAK256 PUSH1 0x1F DUP4 ADD PUSH1 0x5 SHR DUP2 ADD SWAP2 PUSH1 0x20 DUP5 LT PUSH2 0x16BE JUMPI JUMPDEST PUSH1 0x1F ADD PUSH1 0x5 SHR ADD SWAP1 JUMPDEST DUP2 DUP2 LT PUSH2 0x16B3 JUMPI POP PUSH2 0xAAE JUMP JUMPDEST PUSH0 DUP2 SSTORE PUSH1 0x1 ADD PUSH2 0x16A6 JUMP JUMPDEST SWAP1 SWAP2 POP DUP2 SWAP1 PUSH2 0x169D JUMP JUMPDEST ADD MLOAD SWAP1 POP DUP6 DUP1 PUSH2 0xA6C JUMP JUMPDEST PUSH1 0x1F NOT DUP3 AND SWAP6 DUP4 PUSH0 MSTORE DUP1 PUSH0 KECCAK256 SWAP2 PUSH0 JUMPDEST DUP9 DUP2 LT PUSH2 0x171C JUMPI POP DUP4 PUSH1 0x1 SWAP6 SWAP7 SWAP8 SWAP9 LT PUSH2 0x1704 JUMPI JUMPDEST POP POP POP DUP2 SHL ADD SWAP1 SSTORE PUSH2 0xA80 JUMP JUMPDEST ADD MLOAD PUSH0 NOT PUSH1 0xF8 DUP5 PUSH1 0x3 SHL AND SHR NOT AND SWAP1 SSTORE DUP6 DUP1 DUP1 PUSH2 0x16F7 JUMP JUMPDEST SWAP2 SWAP3 PUSH1 0x20 PUSH1 0x1 DUP2 SWAP3 DUP7 DUP6 ADD MLOAD DUP2 SSTORE ADD SWAP5 ADD SWAP3 ADD PUSH2 0x16E2 JUMP JUMPDEST DUP3 PUSH0 MSTORE PUSH1 0x20 PUSH0 KECCAK256 PUSH1 0x1F DUP4 ADD PUSH1 0x5 SHR DUP2 ADD SWAP2 PUSH1 0x20 DUP5 LT PUSH2 0x176F JUMPI JUMPDEST PUSH1 0x1F ADD PUSH1 0x5 SHR ADD SWAP1 JUMPDEST DUP2 DUP2 LT PUSH2 0x1764 JUMPI POP PUSH2 0xA50 JUMP JUMPDEST PUSH0 DUP2 SSTORE PUSH1 0x1 ADD PUSH2 0x1757 JUMP JUMPDEST SWAP1 SWAP2 POP DUP2 SWAP1 PUSH2 0x174E JUMP JUMPDEST ADD MLOAD SWAP1 POP DUP6 DUP1 PUSH2 0xA0E JUMP JUMPDEST PUSH1 0x1F NOT DUP3 AND SWAP6 DUP4 PUSH0 MSTORE DUP1 PUSH0 KECCAK256 SWAP2 PUSH0 JUMPDEST DUP9 DUP2 LT PUSH2 0x17CD JUMPI POP DUP4 PUSH1 0x1 SWAP6 SWAP7 SWAP8 SWAP9 LT PUSH2 0x17B5 JUMPI JUMPDEST POP POP POP DUP2 SHL ADD SWAP1 SSTORE PUSH2 0xA22 JUMP JUMPDEST ADD MLOAD PUSH0 NOT PUSH1 0xF8 DUP5 PUSH1 0x3 SHL AND SHR NOT AND SWAP1 SSTORE DUP6 DUP1 DUP1 PUSH2 0x17A8 JUMP JUMPDEST SWAP2 SWAP3 PUSH1 0x20 PUSH1 0x1 DUP2 SWAP3 DUP7 DUP6 ADD MLOAD DUP2 SSTORE ADD SWAP5 ADD SWAP3 ADD PUSH2 0x1793 JUMP JUMPDEST DUP3 PUSH0 MSTORE PUSH1 0x20 PUSH0 KECCAK256 PUSH1 0x1F DUP4 ADD PUSH1 0x5 SHR DUP2 ADD SWAP2 PUSH1 0x20 DUP5 LT PUSH2 0x1820 JUMPI JUMPDEST PUSH1 0x1F ADD PUSH1 0x5 SHR ADD SWAP1 JUMPDEST DUP2 DUP2 LT PUSH2 0x1815 JUMPI POP PUSH2 0x9F2 JUMP JUMPDEST PUSH0 DUP2 SSTORE PUSH1 0x1 ADD PUSH2 0x1808 JUMP JUMPDEST SWAP1 SWAP2 POP DUP2 SWAP1 PUSH2 0x17FF JUMP JUMPDEST PUSH1 0x40 MLOAD PUSH3 0x461BCD PUSH1 0xE5 SHL DUP2 MSTORE PUSH1 0x20 PUSH1 0x4 DUP3 ADD MSTORE PUSH1 0x17 PUSH1 0x24 DUP3 ADD MSTORE PUSH32 0x526571756972657320646576656C6F70657220726F6C65000000000000000000 PUSH1 0x44 DUP3 ADD MSTORE PUSH1 0x64 SWAP1 REVERT JUMPDEST CALLVALUE PUSH2 0x423 JUMPI PUSH1 0x20 CALLDATASIZE PUSH1 0x3 NOT ADD SLT PUSH2 0x423 JUMPI PUSH1 0x1 PUSH1 0x1 PUSH1 0xA0 SHL SUB PUSH2 0x1890 PUSH2 0x265F JUMP JUMPDEST AND DUP1 ISZERO PUSH2 0x18AD JUMPI PUSH0 MSTORE PUSH1 0x3 PUSH1 0x20 MSTORE PUSH1 0x20 PUSH1 0x40 PUSH0 KECCAK256 SLOAD PUSH1 0x40 MLOAD SWAP1 DUP2 MSTORE RETURN JUMPDEST PUSH4 0x22718AD9 PUSH1 0xE2 SHL PUSH0 MSTORE PUSH0 PUSH1 0x4 MSTORE PUSH1 0x24 PUSH0 REVERT JUMPDEST CALLVALUE PUSH2 0x423 JUMPI PUSH1 0x40 CALLDATASIZE PUSH1 0x3 NOT ADD SLT PUSH2 0x423 JUMPI PUSH1 0x24 CALLDATALOAD PUSH1 0x4 CALLDATALOAD PUSH0 MSTORE PUSH1 0xC PUSH1 0x20 MSTORE PUSH1 0x40 PUSH0 KECCAK256 DUP1 SLOAD DUP3 LT ISZERO PUSH2 0x423 JUMPI PUSH1 0x20 SWAP2 PUSH2 0x18F7 SWAP2 PUSH2 0x27BE JUMP JUMPDEST SWAP1 SLOAD SWAP1 PUSH1 0x3 SHL SHR PUSH1 0x40 MLOAD SWAP1 DUP2 MSTORE RETURN JUMPDEST CALLVALUE PUSH2 0x423 JUMPI PUSH1 0x20 CALLDATASIZE PUSH1 0x3 NOT ADD SLT PUSH2 0x423 JUMPI CALLER PUSH0 SWAP1 DUP2 MSTORE PUSH32 0xC3BB05773FB95F6688E1E7D9C896674DCCD66884026CF30A3D5E3A9BFECD811 PUSH1 0x20 MSTORE PUSH1 0x40 SWAP1 KECCAK256 SLOAD PUSH1 0x4 CALLDATALOAD SWAP1 PUSH2 0x1955 SWAP1 PUSH1 0xFF AND PUSH2 0x288F JUMP JUMPDEST DUP1 PUSH0 MSTORE PUSH1 0xA PUSH1 0x20 MSTORE PUSH1 0xFF PUSH1 0x10 PUSH1 0x40 PUSH0 KECCAK256 ADD SLOAD AND PUSH1 0x3 DUP2 LT ISZERO PUSH2 0xEFC JUMPI PUSH2 0x197B SWAP1 ISZERO PUSH2 0x2AAD JUMP JUMPDEST DUP1 PUSH0 MSTORE PUSH1 0xA PUSH1 0x20 MSTORE PUSH1 0x10 PUSH1 0x40 PUSH0 KECCAK256 ADD PUSH1 0x2 PUSH1 0xFF NOT DUP3 SLOAD AND OR SWAP1 SSTORE PUSH32 0xCDCFE8BD58F12AC7A585895F7045B6322A1EC7E7179377DC3BFA8434ED22E724 PUSH0 DUP1 LOG2 STOP JUMPDEST CALLVALUE PUSH2 0x423 JUMPI PUSH1 0x20 CALLDATASIZE PUSH1 0x3 NOT ADD SLT PUSH2 0x423 JUMPI PUSH1 0x20 PUSH2 0x19D9 PUSH1 0x4 CALLDATALOAD PUSH2 0x2AEF JUMP JUMPDEST PUSH1 0x40 MLOAD PUSH1 0x1 PUSH1 0x1 PUSH1 0xA0 SHL SUB SWAP1 SWAP2 AND DUP2 MSTORE RETURN JUMPDEST CALLVALUE PUSH2 0x423 JUMPI PUSH1 0x20 CALLDATASIZE PUSH1 0x3 NOT ADD SLT PUSH2 0x423 JUMPI PUSH1 0x4 CALLDATALOAD PUSH0 MSTORE PUSH1 0x9 PUSH1 0x20 MSTORE PUSH1 0x20 PUSH1 0x40 PUSH0 KECCAK256 SLOAD PUSH1 0x40 MLOAD SWAP1 DUP2 MSTORE RETURN JUMPDEST CALLVALUE PUSH2 0x423 JUMPI PUSH1 0x40 CALLDATASIZE PUSH1 0x3 NOT ADD SLT PUSH2 0x423 JUMPI PUSH2 0x1A2E PUSH2 0x265F JUMP JUMPDEST PUSH1 0x1 PUSH1 0x1 PUSH1 0xA0 SHL SUB AND PUSH0 SWAP1 DUP2 MSTORE PUSH1 0xB PUSH1 0x20 MSTORE PUSH1 0x40 SWAP1 KECCAK256 DUP1 SLOAD PUSH1 0x24 CALLDATALOAD SWAP2 SWAP1 DUP3 LT ISZERO PUSH2 0x423 JUMPI PUSH1 0x20 SWAP2 PUSH2 0x18F7 SWAP2 PUSH2 0x27BE JUMP JUMPDEST CALLVALUE PUSH2 0x423 JUMPI PUSH0 CALLDATASIZE PUSH1 0x3 NOT ADD SLT PUSH2 0x423 JUMPI PUSH1 0x20 PUSH1 0x40 MLOAD PUSH32 0xE88250D01110F0D26601320A0DC3DEB69A3D819E8A3EECB6BC55EC90BEB72E05 DUP2 MSTORE RETURN JUMPDEST CALLVALUE PUSH2 0x423 JUMPI PUSH1 0x60 CALLDATASIZE PUSH1 0x3 NOT ADD SLT PUSH2 0x423 JUMPI PUSH1 0x4 CALLDATALOAD PUSH2 0x1AB4 PUSH2 0x2675 JUMP JUMPDEST CALLER PUSH0 SWAP1 DUP2 MSTORE PUSH32 0xC3BB05773FB95F6688E1E7D9C896674DCCD66884026CF30A3D5E3A9BFECD811 PUSH1 0x20 MSTORE PUSH1 0x40 SWAP1 KECCAK256 SLOAD PUSH1 0x44 CALLDATALOAD SWAP3 SWAP1 PUSH2 0x1AF3 SWAP1 PUSH1 0xFF AND PUSH2 0x288F JUMP JUMPDEST DUP1 PUSH0 MSTORE PUSH1 0xA PUSH1 0x20 MSTORE PUSH1 0x40 PUSH0 KECCAK256 PUSH1 0xFF PUSH1 0x10 DUP3 ADD SLOAD AND PUSH1 0x3 DUP2 LT ISZERO PUSH2 0xEFC JUMPI PUSH1 0x1 SUB PUSH2 0x1FC1 JUMPI PUSH1 0xD PUSH2 0x1B23 SWAP2 ADD PUSH2 0x26E4 JUMP JUMPDEST SWAP1 PUSH0 SWAP4 PUSH0 SWAP5 JUMPDEST DUP4 MLOAD DUP7 LT ISZERO PUSH2 0x1C19 JUMPI PUSH1 0x3 PUSH1 0xFC SHL PUSH1 0x1 PUSH1 0x1 PUSH1 0xF8 SHL SUB NOT PUSH2 0x1B4A DUP9 DUP8 PUSH2 0x2D3E JUMP JUMPDEST MLOAD AND LT ISZERO DUP1 PUSH2 0x1BF7 JUMPI JUMPDEST ISZERO PUSH2 0x1BB2 JUMPI PUSH1 0xA DUP2 MUL SWAP1 DUP1 DUP3 DIV PUSH1 0xA EQ SWAP1 ISZERO OR ISZERO PUSH2 0x1B9E JUMPI PUSH1 0x2F NOT PUSH2 0x1B79 DUP8 DUP7 PUSH2 0x2D3E JUMP JUMPDEST MLOAD PUSH1 0xF8 SHR ADD PUSH1 0xFF DUP2 GT PUSH2 0x1B9E JUMPI PUSH1 0x1 SWAP2 PUSH1 0xFF PUSH2 0x1B96 SWAP3 AND SWAP1 PUSH2 0x2A59 JUMP JUMPDEST SWAP6 ADD SWAP5 PUSH2 0x1B29 JUMP JUMPDEST PUSH4 0x4E487B71 PUSH1 0xE0 SHL PUSH0 MSTORE PUSH1 0x11 PUSH1 0x4 MSTORE PUSH1 0x24 PUSH0 REVERT JUMPDEST PUSH1 0x40 MLOAD PUSH3 0x461BCD PUSH1 0xE5 SHL DUP2 MSTORE PUSH1 0x20 PUSH1 0x4 DUP3 ADD MSTORE PUSH1 0x1B PUSH1 0x24 DUP3 ADD MSTORE PUSH32 0x496E76616C69642063686172616374657220696E206E756D6265720000000000 PUSH1 0x44 DUP3 ADD MSTORE PUSH1 0x64 SWAP1 REVERT JUMPDEST POP PUSH1 0x39 PUSH1 0xF8 SHL PUSH1 0x1 PUSH1 0x1 PUSH1 0xF8 SHL SUB NOT PUSH2 0x1C10 DUP9 DUP8 PUSH2 0x2D3E JUMP JUMPDEST MLOAD AND GT ISZERO PUSH2 0x1B54 JUMP JUMPDEST DUP5 SWAP1 DUP4 PUSH0 MSTORE PUSH1 0x9 PUSH1 0x20 MSTORE PUSH1 0x40 PUSH0 KECCAK256 SLOAD DUP2 DUP2 LT ISZERO PUSH2 0x1F7C JUMPI DUP4 ISZERO PUSH2 0x1F42 JUMPI DUP4 PUSH2 0x1C40 SWAP2 PUSH2 0x2A59 JUMP JUMPDEST GT PUSH2 0x1EED JUMPI SWAP2 PUSH1 0x20 SWAP1 PUSH1 0x1 PUSH1 0x1 PUSH1 0xA0 SHL SUB DUP5 AND DUP1 ISZERO DUP1 ISZERO PUSH0 JUMPDEST DUP7 DUP2 LT PUSH2 0x1C7B JUMPI DUP7 PUSH1 0x9 DUP8 DUP8 PUSH0 MSTORE MSTORE PUSH2 0x1C77 PUSH1 0x40 PUSH0 KECCAK256 SWAP2 DUP3 SLOAD PUSH2 0x2A59 JUMP JUMPDEST SWAP1 SSTORE STOP JUMPDEST PUSH2 0x1C86 PUSH1 0x8 SLOAD PUSH2 0x2A66 JUMP JUMPDEST DUP1 PUSH1 0x8 SSTORE PUSH1 0x40 MLOAD SWAP1 PUSH2 0x1C98 DUP9 DUP4 PUSH2 0x26C3 JUMP JUMPDEST DUP5 PUSH0 DUP4 MSTORE PUSH2 0x1EDA JUMPI PUSH0 DUP2 DUP2 MSTORE PUSH1 0x2 DUP10 MSTORE PUSH1 0x40 SWAP1 KECCAK256 SLOAD PUSH1 0x1 PUSH1 0x1 PUSH1 0xA0 SHL SUB AND DUP1 ISZERO ISZERO SWAP1 DUP6 DUP3 PUSH2 0x1EA7 JUMPI JUMPDEST PUSH2 0x1E90 JUMPI JUMPDEST DUP3 PUSH0 MSTORE PUSH1 0x2 DUP11 MSTORE PUSH1 0x40 PUSH0 KECCAK256 DUP9 PUSH1 0x1 PUSH1 0x1 PUSH1 0x60 SHL SUB PUSH1 0xA0 SHL DUP3 SLOAD AND OR SWAP1 SSTORE DUP3 DUP9 DUP3 PUSH32 0xDDF252AD1BE2C89B69C2B068FC378DAA952BA7F163C4A11628F55A4DF523B3EF PUSH0 DUP1 LOG4 POP PUSH2 0x1E7D JUMPI DUP10 EXTCODESIZE PUSH2 0x1D61 JUMPI JUMPDEST POP POP PUSH1 0x1 SWAP1 DUP6 PUSH0 MSTORE PUSH1 0xC DUP8 MSTORE PUSH2 0x1D32 PUSH1 0x40 PUSH0 KECCAK256 PUSH1 0x8 SLOAD SWAP1 PUSH2 0x2A74 JUMP JUMPDEST DUP5 DUP7 PUSH1 0x8 SLOAD PUSH32 0x4B90B8C456043CBC8150108090C41BB0E60447A0313F556A8E100091EEE13D3A PUSH0 DUP1 LOG4 ADD PUSH2 0x1C59 JUMP JUMPDEST SWAP7 PUSH2 0x1DA0 SWAP2 DUP2 SWAP10 SWAP8 SWAP7 SWAP11 SWAP9 PUSH1 0x40 MLOAD SWAP4 DUP5 SWAP3 DUP4 SWAP3 PUSH4 0xA85BD01 PUSH1 0xE1 SHL DUP5 MSTORE CALLER PUSH1 0x4 DUP6 ADD MSTORE PUSH0 PUSH1 0x24 DUP6 ADD MSTORE PUSH1 0x44 DUP5 ADD MSTORE PUSH1 0x80 PUSH1 0x64 DUP5 ADD MSTORE PUSH1 0x84 DUP4 ADD SWAP1 PUSH2 0x263B JUMP JUMPDEST SUB DUP2 PUSH0 DUP14 GAS CALL PUSH0 SWAP2 DUP2 PUSH2 0x1E3D JUMPI JUMPDEST POP PUSH2 0x1E03 JUMPI DUP9 DUP9 RETURNDATASIZE ISZERO PUSH2 0x1DFB JUMPI RETURNDATASIZE SWAP1 PUSH2 0x1DC6 DUP3 PUSH2 0x27E7 JUMP JUMPDEST SWAP2 PUSH2 0x1DD4 PUSH1 0x40 MLOAD SWAP4 DUP5 PUSH2 0x26C3 JUMP JUMPDEST DUP3 MSTORE RETURNDATASIZE PUSH0 DUP3 DUP5 ADD RETURNDATACOPY JUMPDEST DUP2 MLOAD SWAP2 DUP3 PUSH2 0x1DF8 JUMPI DUP4 PUSH4 0x32505749 PUSH1 0xE1 SHL PUSH0 MSTORE PUSH1 0x4 MSTORE PUSH1 0x24 PUSH0 REVERT JUMPDEST ADD REVERT JUMPDEST PUSH1 0x60 SWAP1 PUSH2 0x1DDD JUMP JUMPDEST SWAP6 SWAP8 SWAP5 SWAP7 SWAP6 SWAP4 SWAP5 SWAP4 PUSH1 0x1 PUSH1 0x1 PUSH1 0xE0 SHL SUB NOT AND PUSH4 0x757A42FF PUSH1 0xE1 SHL ADD PUSH2 0x1E2A JUMPI PUSH1 0x1 DUP10 PUSH2 0x1D16 JUMP JUMPDEST DUP4 PUSH4 0x32505749 PUSH1 0xE1 SHL PUSH0 MSTORE PUSH1 0x4 MSTORE PUSH1 0x24 PUSH0 REVERT JUMPDEST SWAP1 SWAP2 POP DUP9 DUP2 DUP2 RETURNDATASIZE DUP4 GT PUSH2 0x1E76 JUMPI JUMPDEST PUSH2 0x1E55 DUP2 DUP4 PUSH2 0x26C3 JUMP JUMPDEST DUP2 ADD SUB SLT PUSH2 0x423 JUMPI MLOAD PUSH1 0x1 PUSH1 0x1 PUSH1 0xE0 SHL SUB NOT DUP2 AND DUP2 SUB PUSH2 0x423 JUMPI SWAP1 DUP11 PUSH2 0x1DAE JUMP JUMPDEST POP RETURNDATASIZE PUSH2 0x1E4B JUMP JUMPDEST PUSH4 0x39E35637 PUSH1 0xE1 SHL PUSH0 MSTORE PUSH0 PUSH1 0x4 MSTORE PUSH1 0x24 PUSH0 REVERT JUMPDEST DUP8 PUSH0 MSTORE PUSH1 0x3 DUP11 MSTORE PUSH1 0x40 PUSH0 KECCAK256 PUSH1 0x1 DUP2 SLOAD ADD SWAP1 SSTORE PUSH2 0x1CC6 JUMP JUMPDEST POP PUSH0 DUP4 DUP2 MSTORE PUSH1 0x4 PUSH1 0x20 MSTORE PUSH1 0x40 DUP1 DUP3 KECCAK256 DUP1 SLOAD PUSH1 0x1 PUSH1 0x1 PUSH1 0xA0 SHL SUB NOT AND SWAP1 SSTORE DUP3 DUP3 MSTORE PUSH1 0x3 DUP13 MSTORE SWAP1 KECCAK256 DUP1 SLOAD PUSH0 NOT ADD SWAP1 SSTORE DUP6 PUSH2 0x1CC1 JUMP JUMPDEST PUSH4 0x32505749 PUSH1 0xE1 SHL PUSH0 MSTORE PUSH0 PUSH1 0x4 MSTORE PUSH1 0x24 PUSH0 REVERT JUMPDEST PUSH1 0x40 MLOAD PUSH3 0x461BCD PUSH1 0xE5 SHL DUP2 MSTORE PUSH1 0x20 PUSH1 0x4 DUP3 ADD MSTORE PUSH1 0x27 PUSH1 0x24 DUP3 ADD MSTORE PUSH32 0x43616E6E6F74206D696E74206D6F7265207468616E20657374696D6174656420 PUSH1 0x44 DUP3 ADD MSTORE PUSH7 0x63726564697473 PUSH1 0xC8 SHL PUSH1 0x64 DUP3 ADD MSTORE PUSH1 0x84 SWAP1 REVERT JUMPDEST PUSH1 0x40 MLOAD PUSH3 0x461BCD PUSH1 0xE5 SHL DUP2 MSTORE PUSH1 0x20 PUSH1 0x4 DUP3 ADD MSTORE PUSH1 0x12 PUSH1 0x24 DUP3 ADD MSTORE PUSH18 0x416D6F756E74206D757374206265203E203 PUSH1 0x74 SHL PUSH1 0x44 DUP3 ADD MSTORE PUSH1 0x64 SWAP1 REVERT JUMPDEST PUSH1 0x40 MLOAD PUSH3 0x461BCD PUSH1 0xE5 SHL DUP2 MSTORE PUSH1 0x20 PUSH1 0x4 DUP3 ADD MSTORE PUSH1 0x1A PUSH1 0x24 DUP3 ADD MSTORE PUSH32 0x416C6C206372656469747320616C7265616479206D696E746564000000000000 PUSH1 0x44 DUP3 ADD MSTORE PUSH1 0x64 SWAP1 REVERT JUMPDEST PUSH1 0x40 MLOAD PUSH3 0x461BCD PUSH1 0xE5 SHL DUP2 MSTORE PUSH1 0x20 PUSH1 0x4 DUP3 ADD MSTORE PUSH1 0x14 PUSH1 0x24 DUP3 ADD MSTORE PUSH20 0x141C9BDA9958DD081B9BDD08185C1C1C9BDD9959 PUSH1 0x62 SHL PUSH1 0x44 DUP3 ADD MSTORE PUSH1 0x64 SWAP1 REVERT JUMPDEST CALLVALUE PUSH2 0x423 JUMPI PUSH2 0x492 PUSH2 0x200E CALLDATASIZE PUSH2 0x2784 JUMP JUMPDEST SWAP1 PUSH1 0x40 MLOAD SWAP3 PUSH2 0x201E PUSH1 0x20 DUP6 PUSH2 0x26C3 JUMP JUMPDEST PUSH0 DUP5 MSTORE PUSH2 0x48C DUP4 DUP4 DUP4 PUSH2 0x28D1 JUMP JUMPDEST CALLVALUE PUSH2 0x423 JUMPI PUSH1 0x40 CALLDATASIZE PUSH1 0x3 NOT ADD SLT PUSH2 0x423 JUMPI PUSH2 0x2045 PUSH2 0x2675 JUMP JUMPDEST CALLER PUSH1 0x1 PUSH1 0x1 PUSH1 0xA0 SHL SUB DUP3 AND SUB PUSH2 0x2061 JUMPI PUSH2 0x492 SWAP1 PUSH1 0x4 CALLDATALOAD PUSH2 0x2CBA JUMP JUMPDEST PUSH4 0x334BD919 PUSH1 0xE1 SHL PUSH0 MSTORE PUSH1 0x4 PUSH0 REVERT JUMPDEST CALLVALUE PUSH2 0x423 JUMPI PUSH1 0x40 CALLDATASIZE PUSH1 0x3 NOT ADD SLT PUSH2 0x423 JUMPI PUSH2 0x492 PUSH1 0x4 CALLDATALOAD PUSH2 0x208F PUSH2 0x2675 JUMP JUMPDEST SWAP1 PUSH2 0x20A9 PUSH2 0x3A2 DUP3 PUSH0 MSTORE PUSH1 0x6 PUSH1 0x20 MSTORE PUSH1 0x1 PUSH1 0x40 PUSH0 KECCAK256 ADD SLOAD SWAP1 JUMP JUMPDEST PUSH2 0x2C2E JUMP JUMPDEST CALLVALUE PUSH2 0x423 JUMPI PUSH1 0x20 CALLDATASIZE PUSH1 0x3 NOT ADD SLT PUSH2 0x423 JUMPI PUSH1 0x20 PUSH2 0x20D9 PUSH1 0x4 CALLDATALOAD PUSH0 MSTORE PUSH1 0x6 PUSH1 0x20 MSTORE PUSH1 0x1 PUSH1 0x40 PUSH0 KECCAK256 ADD SLOAD SWAP1 JUMP JUMPDEST PUSH1 0x40 MLOAD SWAP1 DUP2 MSTORE RETURN JUMPDEST CALLVALUE PUSH2 0x423 JUMPI PUSH2 0x492 PUSH2 0x20F2 CALLDATASIZE PUSH2 0x2784 JUMP JUMPDEST SWAP2 PUSH2 0x28D1 JUMP JUMPDEST CALLVALUE PUSH2 0x423 JUMPI PUSH1 0x20 CALLDATASIZE PUSH1 0x3 NOT ADD SLT PUSH2 0x423 JUMPI PUSH2 0x492 PUSH2 0x2114 PUSH2 0x265F JUMP JUMPDEST CALLER PUSH0 SWAP1 DUP2 MSTORE PUSH32 0xC3BB05773FB95F6688E1E7D9C896674DCCD66884026CF30A3D5E3A9BFECD811 PUSH1 0x20 MSTORE PUSH1 0x40 SWAP1 KECCAK256 SLOAD PUSH2 0x214E SWAP1 PUSH1 0xFF AND PUSH2 0x288F JUMP JUMPDEST PUSH32 0xE88250D01110F0D26601320A0DC3DEB69A3D819E8A3EECB6BC55EC90BEB72E05 PUSH0 MSTORE PUSH1 0x6 PUSH1 0x20 MSTORE PUSH32 0x29A7573F8F7DB4FE95A7F9DD76C9355B427198DBC0CAB2864CD3A802FBFD1CE0 SLOAD PUSH2 0x21A1 SWAP1 PUSH2 0x2B23 JUMP JUMPDEST PUSH2 0x2B5D JUMP JUMPDEST CALLVALUE PUSH2 0x423 JUMPI PUSH1 0x20 CALLDATASIZE PUSH1 0x3 NOT ADD SLT PUSH2 0x423 JUMPI PUSH1 0x4 CALLDATALOAD PUSH0 SWAP1 DUP2 MSTORE PUSH1 0xA PUSH1 0x20 MSTORE PUSH1 0x40 SWAP1 KECCAK256 DUP1 SLOAD PUSH1 0x1 DUP3 ADD SLOAD PUSH1 0x1 PUSH1 0x1 PUSH1 0xA0 SHL SUB AND PUSH1 0xC0 MSTORE DUP2 SWAP1 DUP2 SWAP1 PUSH2 0x21EA PUSH1 0x2 DUP4 ADD PUSH2 0x26E4 JUMP JUMPDEST PUSH2 0x21F6 PUSH1 0x3 DUP5 ADD PUSH2 0x26E4 JUMP JUMPDEST PUSH2 0x2202 PUSH1 0x4 DUP6 ADD PUSH2 0x26E4 JUMP JUMPDEST PUSH2 0x220E PUSH1 0x5 DUP7 ADD PUSH2 0x26E4 JUMP JUMPDEST PUSH2 0x221A PUSH1 0x6 DUP8 ADD PUSH2 0x26E4 JUMP JUMPDEST PUSH2 0x2226 PUSH1 0x7 DUP9 ADD PUSH2 0x26E4 JUMP JUMPDEST SWAP1 PUSH2 0x2233 PUSH1 0x8 DUP10 ADD PUSH2 0x26E4 JUMP JUMPDEST SWAP3 PUSH1 0x9 DUP10 ADD SLOAD SWAP5 PUSH1 0xA DUP11 ADD PUSH2 0x2247 SWAP1 PUSH2 0x26E4 JUMP JUMPDEST SWAP7 PUSH2 0x2254 PUSH1 0xB DUP13 ADD PUSH2 0x26E4 JUMP JUMPDEST SWAP9 PUSH2 0x2261 PUSH1 0xC DUP14 ADD PUSH2 0x26E4 JUMP JUMPDEST SWAP11 PUSH2 0x226E PUSH1 0xD DUP15 ADD PUSH2 0x26E4 JUMP JUMPDEST SWAP13 PUSH1 0xE ADD PUSH2 0x227B SWAP1 PUSH2 0x26E4 JUMP JUMPDEST SWAP14 PUSH1 0xF ADD PUSH2 0x2288 SWAP1 PUSH2 0x26E4 JUMP JUMPDEST SWAP15 PUSH1 0x10 ADD SLOAD PUSH1 0xFF AND PUSH1 0x80 MSTORE PUSH1 0x40 MLOAD PUSH1 0xA0 MSTORE PUSH1 0xA0 MLOAD MSTORE PUSH1 0xC0 MLOAD PUSH1 0xA0 MLOAD PUSH1 0x20 ADD MSTORE PUSH1 0xA0 MLOAD PUSH1 0x40 ADD PUSH2 0x220 SWAP1 MSTORE PUSH1 0xA0 MLOAD PUSH2 0x220 ADD PUSH2 0x22C2 SWAP2 PUSH2 0x263B JUMP JUMPDEST PUSH1 0xA0 MLOAD DUP2 SUB PUSH1 0xA0 MLOAD PUSH1 0x60 ADD MSTORE PUSH2 0x22D7 SWAP2 PUSH2 0x263B JUMP JUMPDEST PUSH1 0xA0 MLOAD DUP2 SUB PUSH1 0xA0 MLOAD PUSH1 0x80 ADD MSTORE PUSH2 0x22EC SWAP2 PUSH2 0x263B JUMP JUMPDEST PUSH1 0xA0 MLOAD DUP2 SUB PUSH1 0xA0 MLOAD PUSH1 0xA0 ADD MSTORE PUSH2 0x2301 SWAP2 PUSH2 0x263B JUMP JUMPDEST PUSH1 0xA0 MLOAD DUP2 SUB PUSH1 0xA0 MLOAD PUSH1 0xC0 ADD MSTORE PUSH2 0x2316 SWAP2 PUSH2 0x263B JUMP JUMPDEST PUSH1 0xA0 MLOAD DUP2 SUB PUSH1 0xA0 MLOAD PUSH1 0xE0 ADD MSTORE PUSH2 0x232B SWAP2 PUSH2 0x263B JUMP JUMPDEST PUSH1 0xA0 MLOAD DUP2 SUB PUSH1 0xA0 MLOAD PUSH2 0x100 ADD MSTORE PUSH2 0x2341 SWAP2 PUSH2 0x263B JUMP JUMPDEST SWAP1 PUSH1 0xA0 MLOAD PUSH2 0x120 ADD MSTORE PUSH1 0xA0 MLOAD DUP2 SUB PUSH1 0xA0 MLOAD PUSH2 0x140 ADD MSTORE PUSH2 0x2360 SWAP2 PUSH2 0x263B JUMP JUMPDEST PUSH1 0xA0 MLOAD DUP2 SUB PUSH1 0xA0 MLOAD PUSH2 0x160 ADD MSTORE PUSH2 0x2376 SWAP2 PUSH2 0x263B JUMP JUMPDEST PUSH1 0xA0 MLOAD DUP2 SUB PUSH1 0xA0 MLOAD PUSH2 0x180 ADD MSTORE PUSH2 0x238C SWAP2 PUSH2 0x263B JUMP JUMPDEST PUSH1 0xA0 MLOAD DUP2 SUB PUSH1 0xA0 MLOAD PUSH2 0x1A0 ADD MSTORE PUSH2 0x23A2 SWAP2 PUSH2 0x263B JUMP JUMPDEST PUSH1 0xA0 MLOAD DUP2 SUB PUSH1 0xA0 MLOAD PUSH2 0x1C0 ADD MSTORE PUSH2 0x23B8 SWAP2 PUSH2 0x263B JUMP JUMPDEST PUSH1 0xA0 MLOAD DUP2 SUB PUSH1 0xA0 MLOAD PUSH2 0x1E0 ADD MSTORE PUSH2 0x23CE SWAP2 PUSH2 0x263B JUMP JUMPDEST PUSH1 0x80 MLOAD PUSH1 0x3 GT ISZERO PUSH2 0xEFC JUMPI PUSH1 0x80 MLOAD PUSH2 0x200 PUSH1 0xA0 MLOAD ADD MSTORE PUSH1 0xA0 MLOAD SWAP1 SUB PUSH1 0xA0 MLOAD RETURN JUMPDEST CALLVALUE PUSH2 0x423 JUMPI PUSH1 0x40 CALLDATASIZE PUSH1 0x3 NOT ADD SLT PUSH2 0x423 JUMPI PUSH2 0x2407 PUSH2 0x265F JUMP JUMPDEST PUSH1 0x24 CALLDATALOAD PUSH2 0x2413 DUP2 PUSH2 0x2AEF JUMP JUMPDEST CALLER ISZERO ISZERO DUP1 PUSH2 0x24C5 JUMPI JUMPDEST DUP1 PUSH2 0x2498 JUMPI JUMPDEST PUSH2 0x2485 JUMPI DUP2 SWAP1 PUSH1 0x1 PUSH1 0x1 PUSH1 0xA0 SHL SUB DUP5 DUP2 AND SWAP2 AND PUSH32 0x8C5BE1E5EBEC7D5BD14F71427D1E84F3DD0314C0F7B2291E5B200AC8C7C3B925 PUSH0 DUP1 LOG4 PUSH0 SWAP1 DUP2 MSTORE PUSH1 0x4 PUSH1 0x20 MSTORE PUSH1 0x40 SWAP1 KECCAK256 DUP1 SLOAD PUSH1 0x1 PUSH1 0x1 PUSH1 0xA0 SHL SUB NOT AND PUSH1 0x1 PUSH1 0x1 PUSH1 0xA0 SHL SUB SWAP1 SWAP3 AND SWAP2 SWAP1 SWAP2 OR SWAP1 SSTORE STOP JUMPDEST PUSH4 0xA9FBF51F PUSH1 0xE0 SHL PUSH0 MSTORE CALLER PUSH1 0x4 MSTORE PUSH1 0x24 PUSH0 REVERT JUMPDEST POP PUSH1 0x1 PUSH1 0x1 PUSH1 0xA0 SHL SUB DUP2 AND PUSH0 SWAP1 DUP2 MSTORE PUSH1 0x5 PUSH1 0x20 SWAP1 DUP2 MSTORE PUSH1 0x40 DUP1 DUP4 KECCAK256 CALLER DUP5 MSTORE SWAP1 SWAP2 MSTORE SWAP1 KECCAK256 SLOAD PUSH1 0xFF AND ISZERO PUSH2 0x2422 JUMP JUMPDEST POP PUSH1 0x1 PUSH1 0x1 PUSH1 0xA0 SHL SUB DUP2 AND CALLER EQ ISZERO PUSH2 0x241C JUMP JUMPDEST CALLVALUE PUSH2 0x423 JUMPI PUSH1 0x20 CALLDATASIZE PUSH1 0x3 NOT ADD SLT PUSH2 0x423 JUMPI PUSH1 0x4 CALLDATALOAD PUSH2 0x24F5 DUP2 PUSH2 0x2AEF JUMP JUMPDEST POP PUSH0 MSTORE PUSH1 0x4 PUSH1 0x20 MSTORE PUSH1 0x20 PUSH1 0x1 DUP1 PUSH1 0xA0 SHL SUB PUSH1 0x40 PUSH0 KECCAK256 SLOAD AND PUSH1 0x40 MLOAD SWAP1 DUP2 MSTORE RETURN JUMPDEST CALLVALUE PUSH2 0x423 JUMPI PUSH0 CALLDATASIZE PUSH1 0x3 NOT ADD SLT PUSH2 0x423 JUMPI PUSH1 0x40 MLOAD PUSH0 PUSH0 SLOAD PUSH2 0x2533 DUP2 PUSH2 0x268B JUMP JUMPDEST DUP1 DUP5 MSTORE SWAP1 PUSH1 0x1 DUP2 AND SWAP1 DUP2 ISZERO PUSH2 0x603 JUMPI POP PUSH1 0x1 EQ PUSH2 0x255A JUMPI PUSH2 0x34E DUP4 PUSH2 0x591 DUP2 DUP6 SUB DUP3 PUSH2 0x26C3 JUMP JUMPDEST PUSH0 DUP1 DUP1 MSTORE PUSH32 0x290DECD9548B62A8D60345A988386FC84BA6BC95484008F6362F93160EF3E563 SWAP4 SWAP3 POP SWAP1 JUMPDEST DUP1 DUP3 LT PUSH2 0x259C JUMPI POP SWAP1 SWAP2 POP DUP2 ADD PUSH1 0x20 ADD PUSH2 0x591 PUSH2 0x581 JUMP JUMPDEST SWAP2 SWAP3 PUSH1 0x1 DUP2 PUSH1 0x20 SWAP3 SLOAD DUP4 DUP6 DUP9 ADD ADD MSTORE ADD SWAP2 ADD SWAP1 SWAP3 SWAP2 PUSH2 0x2584 JUMP JUMPDEST CALLVALUE PUSH2 0x423 JUMPI PUSH1 0x20 CALLDATASIZE PUSH1 0x3 NOT ADD SLT PUSH2 0x423 JUMPI PUSH1 0x4 CALLDATALOAD SWAP1 PUSH4 0xFFFFFFFF PUSH1 0xE0 SHL DUP3 AND DUP1 SWAP3 SUB PUSH2 0x423 JUMPI PUSH1 0x20 SWAP2 PUSH4 0x7965DB0B PUSH1 0xE0 SHL DUP2 EQ SWAP1 DUP2 ISZERO PUSH2 0x25F8 JUMPI JUMPDEST POP ISZERO ISZERO DUP2 MSTORE RETURN JUMPDEST PUSH4 0x80AC58CD PUSH1 0xE0 SHL DUP2 EQ SWAP2 POP DUP2 ISZERO PUSH2 0x262A JUMPI JUMPDEST DUP2 ISZERO PUSH2 0x2619 JUMPI JUMPDEST POP DUP4 PUSH2 0x25F1 JUMP JUMPDEST PUSH4 0x1FFC9A7 PUSH1 0xE0 SHL EQ SWAP1 POP DUP4 PUSH2 0x2612 JUMP JUMPDEST PUSH4 0x5B5E139F PUSH1 0xE0 SHL DUP2 EQ SWAP2 POP PUSH2 0x260B JUMP JUMPDEST DUP1 MLOAD DUP1 DUP4 MSTORE PUSH1 0x20 SWAP3 SWAP2 DUP2 SWAP1 DUP5 ADD DUP5 DUP5 ADD MCOPY PUSH0 DUP3 DUP3 ADD DUP5 ADD MSTORE PUSH1 0x1F ADD PUSH1 0x1F NOT AND ADD ADD SWAP1 JUMP JUMPDEST PUSH1 0x4 CALLDATALOAD SWAP1 PUSH1 0x1 PUSH1 0x1 PUSH1 0xA0 SHL SUB DUP3 AND DUP3 SUB PUSH2 0x423 JUMPI JUMP JUMPDEST PUSH1 0x24 CALLDATALOAD SWAP1 PUSH1 0x1 PUSH1 0x1 PUSH1 0xA0 SHL SUB DUP3 AND DUP3 SUB PUSH2 0x423 JUMPI JUMP JUMPDEST SWAP1 PUSH1 0x1 DUP3 DUP2 SHR SWAP3 AND DUP1 ISZERO PUSH2 0x26B9 JUMPI JUMPDEST PUSH1 0x20 DUP4 LT EQ PUSH2 0x26A5 JUMPI JUMP JUMPDEST PUSH4 0x4E487B71 PUSH1 0xE0 SHL PUSH0 MSTORE PUSH1 0x22 PUSH1 0x4 MSTORE PUSH1 0x24 PUSH0 REVERT JUMPDEST SWAP2 PUSH1 0x7F AND SWAP2 PUSH2 0x269A JUMP JUMPDEST SWAP1 PUSH1 0x1F DUP1 NOT SWAP2 ADD AND DUP2 ADD SWAP1 DUP2 LT PUSH1 0x1 PUSH1 0x1 PUSH1 0x40 SHL SUB DUP3 GT OR PUSH2 0xFCA JUMPI PUSH1 0x40 MSTORE JUMP JUMPDEST SWAP1 PUSH1 0x40 MLOAD SWAP2 DUP3 PUSH0 DUP3 SLOAD SWAP3 PUSH2 0x26F7 DUP5 PUSH2 0x268B JUMP JUMPDEST DUP1 DUP5 MSTORE SWAP4 PUSH1 0x1 DUP2 AND SWAP1 DUP2 ISZERO PUSH2 0x2762 JUMPI POP PUSH1 0x1 EQ PUSH2 0x271E JUMPI JUMPDEST POP PUSH2 0x271C SWAP3 POP SUB DUP4 PUSH2 0x26C3 JUMP JUMPDEST JUMP JUMPDEST SWAP1 POP PUSH0 SWAP3 SWAP2 SWAP3 MSTORE PUSH1 0x20 PUSH0 KECCAK256 SWAP1 PUSH0 SWAP2 JUMPDEST DUP2 DUP4 LT PUSH2 0x2746 JUMPI POP POP SWAP1 PUSH1 0x20 PUSH2 0x271C SWAP3 DUP3 ADD ADD PUSH0 PUSH2 0x270F JUMP JUMPDEST PUSH1 0x20 SWAP2 SWAP4 POP DUP1 PUSH1 0x1 SWAP2 SLOAD DUP4 DUP6 DUP10 ADD ADD MSTORE ADD SWAP2 ADD SWAP1 SWAP2 DUP5 SWAP3 PUSH2 0x272D JUMP JUMPDEST SWAP1 POP PUSH1 0x20 SWAP3 POP PUSH2 0x271C SWAP5 SWAP2 POP PUSH1 0xFF NOT AND DUP3 DUP5 ADD MSTORE ISZERO ISZERO PUSH1 0x5 SHL DUP3 ADD ADD PUSH0 PUSH2 0x270F JUMP JUMPDEST PUSH1 0x60 SWAP1 PUSH1 0x3 NOT ADD SLT PUSH2 0x423 JUMPI PUSH1 0x4 CALLDATALOAD PUSH1 0x1 PUSH1 0x1 PUSH1 0xA0 SHL SUB DUP2 AND DUP2 SUB PUSH2 0x423 JUMPI SWAP1 PUSH1 0x24 CALLDATALOAD PUSH1 0x1 PUSH1 0x1 PUSH1 0xA0 SHL SUB DUP2 AND DUP2 SUB PUSH2 0x423 JUMPI SWAP1 PUSH1 0x44 CALLDATALOAD SWAP1 JUMP JUMPDEST DUP1 SLOAD DUP3 LT ISZERO PUSH2 0x27D3 JUMPI PUSH0 MSTORE PUSH1 0x20 PUSH0 KECCAK256 ADD SWAP1 PUSH0 SWAP1 JUMP JUMPDEST PUSH4 0x4E487B71 PUSH1 0xE0 SHL PUSH0 MSTORE PUSH1 0x32 PUSH1 0x4 MSTORE PUSH1 0x24 PUSH0 REVERT JUMPDEST PUSH1 0x1 PUSH1 0x1 PUSH1 0x40 SHL SUB DUP2 GT PUSH2 0xFCA JUMPI PUSH1 0x1F ADD PUSH1 0x1F NOT AND PUSH1 0x20 ADD SWAP1 JUMP JUMPDEST SWAP3 SWAP2 SWAP3 PUSH2 0x280E DUP3 PUSH2 0x27E7 JUMP JUMPDEST SWAP2 PUSH2 0x281C PUSH1 0x40 MLOAD SWAP4 DUP5 PUSH2 0x26C3 JUMP JUMPDEST DUP3 SWAP5 DUP2 DUP5 MSTORE DUP2 DUP4 ADD GT PUSH2 0x423 JUMPI DUP3 DUP2 PUSH1 0x20 SWAP4 DUP5 PUSH0 SWAP7 ADD CALLDATACOPY ADD ADD MSTORE JUMP JUMPDEST SWAP1 DUP1 PUSH1 0x1F DUP4 ADD SLT ISZERO PUSH2 0x423 JUMPI DUP2 PUSH1 0x20 PUSH2 0x2853 SWAP4 CALLDATALOAD SWAP2 ADD PUSH2 0x2802 JUMP JUMPDEST SWAP1 JUMP JUMPDEST PUSH1 0x20 PUSH1 0x40 DUP2 DUP4 ADD SWAP3 DUP3 DUP2 MSTORE DUP5 MLOAD DUP1 SWAP5 MSTORE ADD SWAP3 ADD SWAP1 PUSH0 JUMPDEST DUP2 DUP2 LT PUSH2 0x2879 JUMPI POP POP POP SWAP1 JUMP JUMPDEST DUP3 MLOAD DUP5 MSTORE PUSH1 0x20 SWAP4 DUP5 ADD SWAP4 SWAP1 SWAP3 ADD SWAP2 PUSH1 0x1 ADD PUSH2 0x286C JUMP JUMPDEST ISZERO PUSH2 0x2896 JUMPI JUMP JUMPDEST PUSH1 0x40 MLOAD PUSH3 0x461BCD PUSH1 0xE5 SHL DUP2 MSTORE PUSH1 0x20 PUSH1 0x4 DUP3 ADD MSTORE PUSH1 0x13 PUSH1 0x24 DUP3 ADD MSTORE PUSH19 0x52657175697265732061646D696E20726F6C65 PUSH1 0x68 SHL PUSH1 0x44 DUP3 ADD MSTORE PUSH1 0x64 SWAP1 REVERT JUMPDEST PUSH1 0x1 PUSH1 0x1 PUSH1 0xA0 SHL SUB SWAP1 SWAP2 AND SWAP2 SWAP1 DUP3 ISZERO PUSH2 0x1EDA JUMPI PUSH0 DUP3 DUP2 MSTORE PUSH1 0x2 PUSH1 0x20 MSTORE PUSH1 0x40 SWAP1 KECCAK256 SLOAD PUSH1 0x1 PUSH1 0x1 PUSH1 0xA0 SHL SUB AND SWAP3 DUP3 SWAP1 CALLER ISZERO ISZERO DUP1 PUSH2 0x29C4 JUMPI JUMPDEST POP DUP5 PUSH2 0x2991 JUMPI JUMPDEST DUP1 PUSH0 MSTORE PUSH1 0x3 PUSH1 0x20 MSTORE PUSH1 0x40 PUSH0 KECCAK256 PUSH1 0x1 DUP2 SLOAD ADD SWAP1 SSTORE DUP2 PUSH0 MSTORE PUSH1 0x2 PUSH1 0x20 MSTORE PUSH1 0x40 PUSH0 KECCAK256 DUP2 PUSH1 0x1 PUSH1 0x1 PUSH1 0x60 SHL SUB PUSH1 0xA0 SHL DUP3 SLOAD AND OR SWAP1 SSTORE DUP5 PUSH32 0xDDF252AD1BE2C89B69C2B068FC378DAA952BA7F163C4A11628F55A4DF523B3EF PUSH0 DUP1 LOG4 PUSH1 0x1 PUSH1 0x1 PUSH1 0xA0 SHL SUB AND DUP1 DUP4 SUB PUSH2 0x2979 JUMPI POP POP POP JUMP JUMPDEST PUSH4 0x64283D7B PUSH1 0xE0 SHL PUSH0 MSTORE PUSH1 0x4 MSTORE PUSH1 0x24 MSTORE PUSH1 0x44 MSTORE PUSH1 0x64 PUSH0 REVERT JUMPDEST PUSH0 DUP3 DUP2 MSTORE PUSH1 0x4 PUSH1 0x20 MSTORE PUSH1 0x40 SWAP1 KECCAK256 DUP1 SLOAD PUSH1 0x1 PUSH1 0x1 PUSH1 0xA0 SHL SUB NOT AND SWAP1 SSTORE DUP5 PUSH0 MSTORE PUSH1 0x3 PUSH1 0x20 MSTORE PUSH1 0x40 PUSH0 KECCAK256 PUSH0 NOT DUP2 SLOAD ADD SWAP1 SSTORE PUSH2 0x290E JUMP JUMPDEST SWAP1 SWAP2 POP DUP1 PUSH2 0x2A08 JUMPI JUMPDEST ISZERO PUSH2 0x29DA JUMPI DUP3 SWAP1 PUSH0 PUSH2 0x2907 JUMP JUMPDEST DUP3 DUP5 PUSH2 0x29F2 JUMPI PUSH4 0x7E273289 PUSH1 0xE0 SHL PUSH0 MSTORE PUSH1 0x4 MSTORE PUSH1 0x24 PUSH0 REVERT JUMPDEST PUSH4 0x177E802F PUSH1 0xE0 SHL PUSH0 MSTORE CALLER PUSH1 0x4 MSTORE PUSH1 0x24 MSTORE PUSH1 0x44 PUSH0 REVERT JUMPDEST POP CALLER DUP5 EQ DUP1 ISZERO PUSH2 0x2A37 JUMPI JUMPDEST DUP1 PUSH2 0x29CD JUMPI POP PUSH0 DUP4 DUP2 MSTORE PUSH1 0x4 PUSH1 0x20 MSTORE PUSH1 0x40 SWAP1 KECCAK256 SLOAD PUSH1 0x1 PUSH1 0x1 PUSH1 0xA0 SHL SUB AND CALLER EQ PUSH2 0x29CD JUMP JUMPDEST POP PUSH0 DUP5 DUP2 MSTORE PUSH1 0x5 PUSH1 0x20 SWAP1 DUP2 MSTORE PUSH1 0x40 DUP1 DUP4 KECCAK256 CALLER DUP5 MSTORE SWAP1 SWAP2 MSTORE SWAP1 KECCAK256 SLOAD PUSH1 0xFF AND PUSH2 0x2A13 JUMP JUMPDEST SWAP2 SWAP1 DUP3 ADD DUP1 SWAP3 GT PUSH2 0x1B9E JUMPI JUMP JUMPDEST PUSH0 NOT DUP2 EQ PUSH2 0x1B9E JUMPI PUSH1 0x1 ADD SWAP1 JUMP JUMPDEST DUP1 SLOAD PUSH9 0x10000000000000000 DUP2 LT ISZERO PUSH2 0xFCA JUMPI PUSH2 0x2A96 SWAP2 PUSH1 0x1 DUP3 ADD DUP2 SSTORE PUSH2 0x27BE JUMP JUMPDEST DUP2 SWAP3 SWAP2 SLOAD SWAP1 PUSH1 0x3 SHL SWAP2 DUP3 SHL SWAP2 PUSH0 NOT SWAP1 SHL NOT AND OR SWAP1 SSTORE JUMP JUMPDEST ISZERO PUSH2 0x2AB4 JUMPI JUMP JUMPDEST PUSH1 0x40 MLOAD PUSH3 0x461BCD PUSH1 0xE5 SHL DUP2 MSTORE PUSH1 0x20 PUSH1 0x4 DUP3 ADD MSTORE PUSH1 0x13 PUSH1 0x24 DUP3 ADD MSTORE PUSH19 0x50726F6A656374206E6F742070656E64696E67 PUSH1 0x68 SHL PUSH1 0x44 DUP3 ADD MSTORE PUSH1 0x64 SWAP1 REVERT JUMPDEST PUSH0 DUP2 DUP2 MSTORE PUSH1 0x2 PUSH1 0x20 MSTORE PUSH1 0x40 SWAP1 KECCAK256 SLOAD PUSH1 0x1 PUSH1 0x1 PUSH1 0xA0 SHL SUB AND SWAP1 DUP2 ISZERO PUSH2 0x2B11 JUMPI POP SWAP1 JUMP JUMPDEST PUSH4 0x7E273289 PUSH1 0xE0 SHL PUSH0 MSTORE PUSH1 0x4 MSTORE PUSH1 0x24 PUSH0 REVERT JUMPDEST PUSH0 DUP2 DUP2 MSTORE PUSH1 0x6 PUSH1 0x20 SWAP1 DUP2 MSTORE PUSH1 0x40 DUP1 DUP4 KECCAK256 CALLER DUP5 MSTORE SWAP1 SWAP2 MSTORE SWAP1 KECCAK256 SLOAD PUSH1 0xFF AND ISZERO PUSH2 0x2B47 JUMPI POP JUMP JUMPDEST PUSH4 0xE2517D3F PUSH1 0xE0 SHL PUSH0 MSTORE CALLER PUSH1 0x4 MSTORE PUSH1 0x24 MSTORE PUSH1 0x44 PUSH0 REVERT JUMPDEST PUSH1 0x1 PUSH1 0x1 PUSH1 0xA0 SHL SUB DUP2 AND PUSH0 SWAP1 DUP2 MSTORE PUSH32 0x29A7573F8F7DB4FE95A7F9DD76C9355B427198DBC0CAB2864CD3A802FBFD1CDF PUSH1 0x20 MSTORE PUSH1 0x40 SWAP1 KECCAK256 SLOAD PUSH1 0xFF AND PUSH2 0x2C29 JUMPI PUSH1 0x1 PUSH1 0x1 PUSH1 0xA0 SHL SUB AND PUSH0 DUP2 DUP2 MSTORE PUSH32 0x29A7573F8F7DB4FE95A7F9DD76C9355B427198DBC0CAB2864CD3A802FBFD1CDF PUSH1 0x20 MSTORE PUSH1 0x40 DUP2 KECCAK256 DUP1 SLOAD PUSH1 0xFF NOT AND PUSH1 0x1 OR SWAP1 SSTORE CALLER SWAP2 SWAP1 PUSH32 0xE88250D01110F0D26601320A0DC3DEB69A3D819E8A3EECB6BC55EC90BEB72E05 SWAP1 PUSH32 0x2F8788117E7EFF1D82E926EC794901D17C78024A50270940304540A733656F0D SWAP1 DUP1 LOG4 PUSH1 0x1 SWAP1 JUMP JUMPDEST POP PUSH0 SWAP1 JUMP JUMPDEST PUSH0 DUP2 DUP2 MSTORE PUSH1 0x6 PUSH1 0x20 SWAP1 DUP2 MSTORE PUSH1 0x40 DUP1 DUP4 KECCAK256 PUSH1 0x1 PUSH1 0x1 PUSH1 0xA0 SHL SUB DUP7 AND DUP5 MSTORE SWAP1 SWAP2 MSTORE SWAP1 KECCAK256 SLOAD PUSH1 0xFF AND PUSH2 0x2CB4 JUMPI PUSH0 DUP2 DUP2 MSTORE PUSH1 0x6 PUSH1 0x20 SWAP1 DUP2 MSTORE PUSH1 0x40 DUP1 DUP4 KECCAK256 PUSH1 0x1 PUSH1 0x1 PUSH1 0xA0 SHL SUB SWAP6 SWAP1 SWAP6 AND DUP1 DUP5 MSTORE SWAP5 SWAP1 SWAP2 MSTORE DUP2 KECCAK256 DUP1 SLOAD PUSH1 0xFF NOT AND PUSH1 0x1 OR SWAP1 SSTORE CALLER SWAP3 SWAP2 SWAP1 PUSH32 0x2F8788117E7EFF1D82E926EC794901D17C78024A50270940304540A733656F0D SWAP1 DUP1 LOG4 PUSH1 0x1 SWAP1 JUMP JUMPDEST POP POP PUSH0 SWAP1 JUMP JUMPDEST PUSH0 DUP2 DUP2 MSTORE PUSH1 0x6 PUSH1 0x20 SWAP1 DUP2 MSTORE PUSH1 0x40 DUP1 DUP4 KECCAK256 PUSH1 0x1 PUSH1 0x1 PUSH1 0xA0 SHL SUB DUP7 AND DUP5 MSTORE SWAP1 SWAP2 MSTORE SWAP1 KECCAK256 SLOAD PUSH1 0xFF AND ISZERO PUSH2 0x2CB4 JUMPI PUSH0 DUP2 DUP2 MSTORE PUSH1 0x6 PUSH1 0x20 SWAP1 DUP2 MSTORE PUSH1 0x40 DUP1 DUP4 KECCAK256 PUSH1 0x1 PUSH1 0x1 PUSH1 0xA0 SHL SUB SWAP6 SWAP1 SWAP6 AND DUP1 DUP5 MSTORE SWAP5 SWAP1 SWAP2 MSTORE DUP2 KECCAK256 DUP1 SLOAD PUSH1 0xFF NOT AND SWAP1 SSTORE CALLER SWAP3 SWAP2 SWAP1 PUSH32 0xF6391F5C32D9C69D2A47EA670B442974B53935D1EDC7FD64EB21E047A839171B SWAP1 DUP1 LOG4 PUSH1 0x1 SWAP1 JUMP JUMPDEST SWAP1 DUP2 MLOAD DUP2 LT ISZERO PUSH2 0x27D3 JUMPI ADD PUSH1 0x20 ADD SWAP1 JUMP JUMPDEST DUP3 EXTCODESIZE PUSH2 0x2D5D JUMPI JUMPDEST POP POP POP POP POP JUMP JUMPDEST PUSH1 0x40 MLOAD PUSH4 0xA85BD01 PUSH1 0xE1 SHL DUP2 MSTORE PUSH1 0x1 PUSH1 0x1 PUSH1 0xA0 SHL SUB SWAP2 DUP3 AND PUSH1 0x4 DUP3 ADD MSTORE SWAP2 DUP2 AND PUSH1 0x24 DUP4 ADD MSTORE PUSH1 0x44 DUP3 ADD SWAP4 SWAP1 SWAP4 MSTORE PUSH1 0x80 PUSH1 0x64 DUP3 ADD MSTORE SWAP2 AND SWAP2 PUSH1 0x20 SWAP1 DUP3 SWAP1 DUP2 SWAP1 PUSH2 0x2DA9 SWAP1 PUSH1 0x84 DUP4 ADD SWAP1 PUSH2 0x263B JUMP JUMPDEST SUB DUP2 PUSH0 DUP7 GAS CALL PUSH0 SWAP2 DUP2 PUSH2 0x2E40 JUMPI JUMPDEST POP PUSH2 0x2E0C JUMPI POP RETURNDATASIZE ISZERO PUSH2 0x2E05 JUMPI RETURNDATASIZE PUSH2 0x2DCD DUP2 PUSH2 0x27E7 JUMP JUMPDEST SWAP1 PUSH2 0x2DDB PUSH1 0x40 MLOAD SWAP3 DUP4 PUSH2 0x26C3 JUMP JUMPDEST DUP2 MSTORE RETURNDATASIZE PUSH0 PUSH1 0x20 DUP4 ADD RETURNDATACOPY JUMPDEST DUP1 MLOAD SWAP1 DUP2 PUSH2 0x2E00 JUMPI DUP3 PUSH4 0x32505749 PUSH1 0xE1 SHL PUSH0 MSTORE PUSH1 0x4 MSTORE PUSH1 0x24 PUSH0 REVERT JUMPDEST PUSH1 0x20 ADD REVERT JUMPDEST PUSH1 0x60 PUSH2 0x2DE5 JUMP JUMPDEST PUSH1 0x1 PUSH1 0x1 PUSH1 0xE0 SHL SUB NOT AND PUSH4 0x757A42FF PUSH1 0xE1 SHL ADD PUSH2 0x2E2E JUMPI POP PUSH0 DUP1 DUP1 DUP1 DUP1 PUSH2 0x2D56 JUMP JUMPDEST PUSH4 0x32505749 PUSH1 0xE1 SHL PUSH0 MSTORE PUSH1 0x4 MSTORE PUSH1 0x24 PUSH0 REVERT JUMPDEST SWAP1 SWAP2 POP PUSH1 0x20 DUP2 RETURNDATASIZE PUSH1 0x20 GT PUSH2 0x2E7D JUMPI JUMPDEST DUP2 PUSH2 0x2E5C PUSH1 0x20 SWAP4 DUP4 PUSH2 0x26C3 JUMP JUMPDEST DUP2 ADD SUB SLT PUSH2 0x423 JUMPI MLOAD PUSH1 0x1 PUSH1 0x1 PUSH1 0xE0 SHL SUB NOT DUP2 AND DUP2 SUB PUSH2 0x423 JUMPI SWAP1 PUSH0 PUSH2 0x2DB7 JUMP JUMPDEST RETURNDATASIZE SWAP2 POP PUSH2 0x2E4F JUMP INVALID LOG2 PUSH5 0x6970667358 0x22 SLT KECCAK256 SWAP8 0x2F CODECOPY PUSH5 0x1DB56F4CCD 0x21 0xD6 PUSH21 0xA5AEEB420877350F4FBE72A1C30ED19DCAE4F15F64 PUSH20 0x6F6C634300081E00332F8788117E7EFF1D82E926 EOFCREATE 0x79 BLOBHASH ADD DATALOADN 0x7C78 MUL BLOBBASEFEE POP 0x27 MULMOD BLOCKHASH ADDRESS GASLIMIT BLOCKHASH 0xA7 CALLER PUSH6 0x6F0D0C3BB057 PUSH20 0xFB95F6688E1E7D9C896674DCCD66884026CF30A3 0xD5 CALLF 0xA9BF EOFCREATE 0xD8 GT LOG4 SWAP9 SMOD KECCAK256 TLOAD RETF 0xD3 SSTORE MULMOD 0x2E CREATE2 0xA8 LOG1 DUP16 JUMP 0xE8 SWAP2 EXTCODECOPY DELEGATECALL LOG2 ADD EXTSTATICCALL 0xE2 DUP8 DUP3 JUMPDEST MULMOD JUMP SWAP4 0xC2 OR PUSH22 0x54CDD369E4E8A8515E52CA72EC816C2101831AD1F18B DELEGATECALL COINBASE MUL 0xED OR EQ MSIZE 0xC9 0xB4 EXTCALL "
		},
		"methodIdentifiers": {
			"ADMIN_ROLE()": "75b238fc",
			"DEFAULT_ADMIN_ROLE()": "a217fddf",
			"PROJECT_DEVELOPER_ROLE()": "49cc994c",
			"addDeveloper(address)": "22fbf1e8",
			"approve(address,uint256)": "095ea7b3",
			"approveProject(uint256)": "fc69d836",
			"balanceOf(address)": "70a08231",
			"developerProjects(address,uint256)": "52e6bc2d",
			"getApproved(uint256)": "081812fc",
			"getDeveloperProjects(address)": "dbd0b271",
			"getProjectTokens(uint256)": "8d01ce2b",
			"getRoleAdmin(bytes32)": "248a9ca3",
			"grantRole(bytes32,address)": "2f2ff15d",
			"hasRole(bytes32,address)": "91d14854",
			"isApprovedForAll(address,address)": "e985e9c5",
			"mintCarbonCredit(uint256,address,uint256)": "47b2a92d",
			"mintedCredits(uint256)": "5e75514d",
			"name()": "06fdde03",
			"ownerOf(uint256)": "6352211e",
			"projectCounter()": "f8a518ed",
			"projectTokens(uint256,uint256)": "6a880d11",
			"projects(uint256)": "107046bd",
			"rejectProject(uint256)": "69b04f19",
			"renounceRole(bytes32,address)": "36568abe",
			"revokeRole(bytes32,address)": "d547741f",
			"safeTransferFrom(address,address,uint256)": "42842e0e",
			"safeTransferFrom(address,address,uint256,bytes)": "b88d4fde",
			"setApprovalForAll(address,bool)": "a22cb465",
			"submitProject(string,string,string,string,string,string,string,uint256,string,string,string,string,string,string)": "7251060a",
			"supportsInterface(bytes4)": "01ffc9a7",
			"symbol()": "95d89b41",
			"tokenCounter()": "d082e381",
			"tokenURI(uint256)": "c87b56dd",
			"transferFrom(address,address,uint256)": "23b872dd"
		}
	},
	"abi": [
		{
			"inputs": [],
			"stateMutability": "nonpayable",
			"type": "constructor"
		},
		{
			"inputs": [],
			"name": "AccessControlBadConfirmation",
			"type": "error"
		},
		{
			"inputs": [
				{
					"internalType": "address",
					"name": "account",
					"type": "address"
				},
				{
					"internalType": "bytes32",
					"name": "neededRole",
					"type": "bytes32"
				}
			],
			"name": "AccessControlUnauthorizedAccount",
			"type": "error"
		},
		{
			"inputs": [
				{
					"internalType": "address",
					"name": "sender",
					"type": "address"
				},
				{
					"internalType": "uint256",
					"name": "tokenId",
					"type": "uint256"
				},
				{
					"internalType": "address",
					"name": "owner",
					"type": "address"
				}
			],
			"name": "ERC721IncorrectOwner",
			"type": "error"
		},
		{
			"inputs": [
				{
					"internalType": "address",
					"name": "operator",
					"type": "address"
				},
				{
					"internalType": "uint256",
					"name": "tokenId",
					"type": "uint256"
				}
			],
			"name": "ERC721InsufficientApproval",
			"type": "error"
		},
		{
			"inputs": [
				{
					"internalType": "address",
					"name": "approver",
					"type": "address"
				}
			],
			"name": "ERC721InvalidApprover",
			"type": "error"
		},
		{
			"inputs": [
				{
					"internalType": "address",
					"name": "operator",
					"type": "address"
				}
			],
			"name": "ERC721InvalidOperator",
			"type": "error"
		},
		{
			"inputs": [
				{
					"internalType": "address",
					"name": "owner",
					"type": "address"
				}
			],
			"name": "ERC721InvalidOwner",
			"type": "error"
		},
		{
			"inputs": [
				{
					"internalType": "address",
					"name": "receiver",
					"type": "address"
				}
			],
			"name": "ERC721InvalidReceiver",
			"type": "error"
		},
		{
			"inputs": [
				{
					"internalType": "address",
					"name": "sender",
					"type": "address"
				}
			],
			"name": "ERC721InvalidSender",
			"type": "error"
		},
		{
			"inputs": [
				{
					"internalType": "uint256",
					"name": "tokenId",
					"type": "uint256"
				}
			],
			"name": "ERC721NonexistentToken",
			"type": "error"
		},
		{
			"anonymous": false,
			"inputs": [
				{
					"indexed": true,
					"internalType": "address",
					"name": "owner",
					"type": "address"
				},
				{
					"indexed": true,
					"internalType": "address",
					"name": "approved",
					"type": "address"
				},
				{
					"indexed": true,
					"internalType": "uint256",
					"name": "tokenId",
					"type": "uint256"
				}
			],
			"name": "Approval",
			"type": "event"
		},
		{
			"anonymous": false,
			"inputs": [
				{
					"indexed": true,
					"internalType": "address",
					"name": "owner",
					"type": "address"
				},
				{
					"indexed": true,
					"internalType": "address",
					"name": "operator",
					"type": "address"
				},
				{
					"indexed": false,
					"internalType": "bool",
					"name": "approved",
					"type": "bool"
				}
			],
			"name": "ApprovalForAll",
			"type": "event"
		},
		{
			"anonymous": false,
			"inputs": [
				{
					"indexed": true,
					"internalType": "uint256",
					"name": "tokenId",
					"type": "uint256"
				},
				{
					"indexed": true,
					"internalType": "uint256",
					"name": "projectId",
					"type": "uint256"
				},
				{
					"indexed": true,
					"internalType": "address",
					"name": "to",
					"type": "address"
				}
			],
			"name": "CarbonCreditMinted",
			"type": "event"
		},
		{
			"anonymous": false,
			"inputs": [
				{
					"indexed": true,
					"internalType": "uint256",
					"name": "projectId",
					"type": "uint256"
				}
			],
			"name": "ProjectApproved",
			"type": "event"
		},
		{
			"anonymous": false,
			"inputs": [
				{
					"indexed": true,
					"internalType": "uint256",
					"name": "projectId",
					"type": "uint256"
				}
			],
			"name": "ProjectRejected",
			"type": "event"
		},
		{
			"anonymous": false,
			"inputs": [
				{
					"indexed": true,
					"internalType": "uint256",
					"name": "projectId",
					"type": "uint256"
				},
				{
					"indexed": true,
					"internalType": "address",
					"name": "developer",
					"type": "address"
				}
			],
			"name": "ProjectSubmitted",
			"type": "event"
		},
		{
			"anonymous": false,
			"inputs": [
				{
					"indexed": true,
					"internalType": "bytes32",
					"name": "role",
					"type": "bytes32"
				},
				{
					"indexed": true,
					"internalType": "bytes32",
					"name": "previousAdminRole",
					"type": "bytes32"
				},
				{
					"indexed": true,
					"internalType": "bytes32",
					"name": "newAdminRole",
					"type": "bytes32"
				}
			],
			"name": "RoleAdminChanged",
			"type": "event"
		},
		{
			"anonymous": false,
			"inputs": [
				{
					"indexed": true,
					"internalType": "bytes32",
					"name": "role",
					"type": "bytes32"
				},
				{
					"indexed": true,
					"internalType": "address",
					"name": "account",
					"type": "address"
				},
				{
					"indexed": true,
					"internalType": "address",
					"name": "sender",
					"type": "address"
				}
			],
			"name": "RoleGranted",
			"type": "event"
		},
		{
			"anonymous": false,
			"inputs": [
				{
					"indexed": true,
					"internalType": "bytes32",
					"name": "role",
					"type": "bytes32"
				},
				{
					"indexed": true,
					"internalType": "address",
					"name": "account",
					"type": "address"
				},
				{
					"indexed": true,
					"internalType": "address",
					"name": "sender",
					"type": "address"
				}
			],
			"name": "RoleRevoked",
			"type": "event"
		},
		{
			"anonymous": false,
			"inputs": [
				{
					"indexed": true,
					"internalType": "address",
					"name": "from",
					"type": "address"
				},
				{
					"indexed": true,
					"internalType": "address",
					"name": "to",
					"type": "address"
				},
				{
					"indexed": true,
					"internalType": "uint256",
					"name": "tokenId",
					"type": "uint256"
				}
			],
			"name": "Transfer",
			"type": "event"
		},
		{
			"inputs": [],
			"name": "ADMIN_ROLE",
			"outputs": [
				{
					"internalType": "bytes32",
					"name": "",
					"type": "bytes32"
				}
			],
			"stateMutability": "view",
			"type": "function"
		},
		{
			"inputs": [],
			"name": "DEFAULT_ADMIN_ROLE",
			"outputs": [
				{
					"internalType": "bytes32",
					"name": "",
					"type": "bytes32"
				}
			],
			"stateMutability": "view",
			"type": "function"
		},
		{
			"inputs": [],
			"name": "PROJECT_DEVELOPER_ROLE",
			"outputs": [
				{
					"internalType": "bytes32",
					"name": "",
					"type": "bytes32"
				}
			],
			"stateMutability": "view",
			"type": "function"
		},
		{
			"inputs": [
				{
					"internalType": "address",
					"name": "developer",
					"type": "address"
				}
			],
			"name": "addDeveloper",
			"outputs": [],
			"stateMutability": "nonpayable",
			"type": "function"
		},
		{
			"inputs": [
				{
					"internalType": "address",
					"name": "to",
					"type": "address"
				},
				{
					"internalType": "uint256",
					"name": "tokenId",
					"type": "uint256"
				}
			],
			"name": "approve",
			"outputs": [],
			"stateMutability": "nonpayable",
			"type": "function"
		},
		{
			"inputs": [
				{
					"internalType": "uint256",
					"name": "projectId",
					"type": "uint256"
				}
			],
			"name": "approveProject",
			"outputs": [],
			"stateMutability": "nonpayable",
			"type": "function"
		},
		{
			"inputs": [
				{
					"internalType": "address",
					"name": "owner",
					"type": "address"
				}
			],
			"name": "balanceOf",
			"outputs": [
				{
					"internalType": "uint256",
					"name": "",
					"type": "uint256"
				}
			],
			"stateMutability": "view",
			"type": "function"
		},
		{
			"inputs": [
				{
					"internalType": "address",
					"name": "",
					"type": "address"
				},
				{
					"internalType": "uint256",
					"name": "",
					"type": "uint256"
				}
			],
			"name": "developerProjects",
			"outputs": [
				{
					"internalType": "uint256",
					"name": "",
					"type": "uint256"
				}
			],
			"stateMutability": "view",
			"type": "function"
		},
		{
			"inputs": [
				{
					"internalType": "uint256",
					"name": "tokenId",
					"type": "uint256"
				}
			],
			"name": "getApproved",
			"outputs": [
				{
					"internalType": "address",
					"name": "",
					"type": "address"
				}
			],
			"stateMutability": "view",
			"type": "function"
		},
		{
			"inputs": [
				{
					"internalType": "address",
					"name": "developer",
					"type": "address"
				}
			],
			"name": "getDeveloperProjects",
			"outputs": [
				{
					"internalType": "uint256[]",
					"name": "",
					"type": "uint256[]"
				}
			],
			"stateMutability": "view",
			"type": "function"
		},
		{
			"inputs": [
				{
					"internalType": "uint256",
					"name": "projectId",
					"type": "uint256"
				}
			],
			"name": "getProjectTokens",
			"outputs": [
				{
					"internalType": "uint256[]",
					"name": "",
					"type": "uint256[]"
				}
			],
			"stateMutability": "view",
			"type": "function"
		},
		{
			"inputs": [
				{
					"internalType": "bytes32",
					"name": "role",
					"type": "bytes32"
				}
			],
			"name": "getRoleAdmin",
			"outputs": [
				{
					"internalType": "bytes32",
					"name": "",
					"type": "bytes32"
				}
			],
			"stateMutability": "view",
			"type": "function"
		},
		{
			"inputs": [
				{
					"internalType": "bytes32",
					"name": "role",
					"type": "bytes32"
				},
				{
					"internalType": "address",
					"name": "account",
					"type": "address"
				}
			],
			"name": "grantRole",
			"outputs": [],
			"stateMutability": "nonpayable",
			"type": "function"
		},
		{
			"inputs": [
				{
					"internalType": "bytes32",
					"name": "role",
					"type": "bytes32"
				},
				{
					"internalType": "address",
					"name": "account",
					"type": "address"
				}
			],
			"name": "hasRole",
			"outputs": [
				{
					"internalType": "bool",
					"name": "",
					"type": "bool"
				}
			],
			"stateMutability": "view",
			"type": "function"
		},
		{
			"inputs": [
				{
					"internalType": "address",
					"name": "owner",
					"type": "address"
				},
				{
					"internalType": "address",
					"name": "operator",
					"type": "address"
				}
			],
			"name": "isApprovedForAll",
			"outputs": [
				{
					"internalType": "bool",
					"name": "",
					"type": "bool"
				}
			],
			"stateMutability": "view",
			"type": "function"
		},
		{
			"inputs": [
				{
					"internalType": "uint256",
					"name": "projectId",
					"type": "uint256"
				},
				{
					"internalType": "address",
					"name": "to",
					"type": "address"
				},
				{
					"internalType": "uint256",
					"name": "amount",
					"type": "uint256"
				}
			],
			"name": "mintCarbonCredit",
			"outputs": [],
			"stateMutability": "nonpayable",
			"type": "function"
		},
		{
			"inputs": [
				{
					"internalType": "uint256",
					"name": "",
					"type": "uint256"
				}
			],
			"name": "mintedCredits",
			"outputs": [
				{
					"internalType": "uint256",
					"name": "",
					"type": "uint256"
				}
			],
			"stateMutability": "view",
			"type": "function"
		},
		{
			"inputs": [],
			"name": "name",
			"outputs": [
				{
					"internalType": "string",
					"name": "",
					"type": "string"
				}
			],
			"stateMutability": "view",
			"type": "function"
		},
		{
			"inputs": [
				{
					"internalType": "uint256",
					"name": "tokenId",
					"type": "uint256"
				}
			],
			"name": "ownerOf",
			"outputs": [
				{
					"internalType": "address",
					"name": "",
					"type": "address"
				}
			],
			"stateMutability": "view",
			"type": "function"
		},
		{
			"inputs": [],
			"name": "projectCounter",
			"outputs": [
				{
					"internalType": "uint256",
					"name": "",
					"type": "uint256"
				}
			],
			"stateMutability": "view",
			"type": "function"
		},
		{
			"inputs": [
				{
					"internalType": "uint256",
					"name": "",
					"type": "uint256"
				},
				{
					"internalType": "uint256",
					"name": "",
					"type": "uint256"
				}
			],
			"name": "projectTokens",
			"outputs": [
				{
					"internalType": "uint256",
					"name": "",
					"type": "uint256"
				}
			],
			"stateMutability": "view",
			"type": "function"
		},
		{
			"inputs": [
				{
					"internalType": "uint256",
					"name": "",
					"type": "uint256"
				}
			],
			"name": "projects",
			"outputs": [
				{
					"internalType": "uint256",
					"name": "id",
					"type": "uint256"
				},
				{
					"internalType": "address",
					"name": "developer",
					"type": "address"
				},
				{
					"internalType": "string",
					"name": "projectName",
					"type": "string"
				},
				{
					"internalType": "string",
					"name": "developerName",
					"type": "string"
				},
				{
					"internalType": "string",
					"name": "description",
					"type": "string"
				},
				{
					"internalType": "string",
					"name": "geographicCoordinates",
					"type": "string"
				},
				{
					"internalType": "string",
					"name": "siteAddress",
					"type": "string"
				},
				{
					"internalType": "string",
					"name": "projectArea",
					"type": "string"
				},
				{
					"internalType": "string",
					"name": "ecosystemType",
					"type": "string"
				},
				{
					"internalType": "uint256",
					"name": "startDate",
					"type": "uint256"
				},
				{
					"internalType": "string",
					"name": "expectedProjectDuration",
					"type": "string"
				},
				{
					"internalType": "string",
					"name": "restorationMethods",
					"type": "string"
				},
				{
					"internalType": "string",
					"name": "baselineCarbonStock",
					"type": "string"
				},
				{
					"internalType": "string",
					"name": "estimatedCarbonSequestration",
					"type": "string"
				},
				{
					"internalType": "string",
					"name": "supportingDocsHash",
					"type": "string"
				},
				{
					"internalType": "string",
					"name": "contactDetails",
					"type": "string"
				},
				{
					"internalType": "enum BlueCarbonRegistry.Status",
					"name": "status",
					"type": "uint8"
				}
			],
			"stateMutability": "view",
			"type": "function"
		},
		{
			"inputs": [
				{
					"internalType": "uint256",
					"name": "projectId",
					"type": "uint256"
				}
			],
			"name": "rejectProject",
			"outputs": [],
			"stateMutability": "nonpayable",
			"type": "function"
		},
		{
			"inputs": [
				{
					"internalType": "bytes32",
					"name": "role",
					"type": "bytes32"
				},
				{
					"internalType": "address",
					"name": "callerConfirmation",
					"type": "address"
				}
			],
			"name": "renounceRole",
			"outputs": [],
			"stateMutability": "nonpayable",
			"type": "function"
		},
		{
			"inputs": [
				{
					"internalType": "bytes32",
					"name": "role",
					"type": "bytes32"
				},
				{
					"internalType": "address",
					"name": "account",
					"type": "address"
				}
			],
			"name": "revokeRole",
			"outputs": [],
			"stateMutability": "nonpayable",
			"type": "function"
		},
		{
			"inputs": [
				{
					"internalType": "address",
					"name": "from",
					"type": "address"
				},
				{
					"internalType": "address",
					"name": "to",
					"type": "address"
				},
				{
					"internalType": "uint256",
					"name": "tokenId",
					"type": "uint256"
				}
			],
			"name": "safeTransferFrom",
			"outputs": [],
			"stateMutability": "nonpayable",
			"type": "function"
		},
		{
			"inputs": [
				{
					"internalType": "address",
					"name": "from",
					"type": "address"
				},
				{
					"internalType": "address",
					"name": "to",
					"type": "address"
				},
				{
					"internalType": "uint256",
					"name": "tokenId",
					"type": "uint256"
				},
				{
					"internalType": "bytes",
					"name": "data",
					"type": "bytes"
				}
			],
			"name": "safeTransferFrom",
			"outputs": [],
			"stateMutability": "nonpayable",
			"type": "function"
		},
		{
			"inputs": [
				{
					"internalType": "address",
					"name": "operator",
					"type": "address"
				},
				{
					"internalType": "bool",
					"name": "approved",
					"type": "bool"
				}
			],
			"name": "setApprovalForAll",
			"outputs": [],
			"stateMutability": "nonpayable",
			"type": "function"
		},
		{
			"inputs": [
				{
					"internalType": "string",
					"name": "projectName",
					"type": "string"
				},
				{
					"internalType": "string",
					"name": "developerName",
					"type": "string"
				},
				{
					"internalType": "string",
					"name": "description",
					"type": "string"
				},
				{
					"internalType": "string",
					"name": "geographicCoordinates",
					"type": "string"
				},
				{
					"internalType": "string",
					"name": "siteAddress",
					"type": "string"
				},
				{
					"internalType": "string",
					"name": "projectArea",
					"type": "string"
				},
				{
					"internalType": "string",
					"name": "ecosystemType",
					"type": "string"
				},
				{
					"internalType": "uint256",
					"name": "startDate",
					"type": "uint256"
				},
				{
					"internalType": "string",
					"name": "expectedProjectDuration",
					"type": "string"
				},
				{
					"internalType": "string",
					"name": "restorationMethods",
					"type": "string"
				},
				{
					"internalType": "string",
					"name": "baselineCarbonStock",
					"type": "string"
				},
				{
					"internalType": "string",
					"name": "estimatedCarbonSequestration",
					"type": "string"
				},
				{
					"internalType": "string",
					"name": "supportingDocsHash",
					"type": "string"
				},
				{
					"internalType": "string",
					"name": "contactDetails",
					"type": "string"
				}
			],
			"name": "submitProject",
			"outputs": [],
			"stateMutability": "nonpayable",
			"type": "function"
		},
		{
			"inputs": [
				{
					"internalType": "bytes4",
					"name": "interfaceId",
					"type": "bytes4"
				}
			],
			"name": "supportsInterface",
			"outputs": [
				{
					"internalType": "bool",
					"name": "",
					"type": "bool"
				}
			],
			"stateMutability": "view",
			"type": "function"
		},
		{
			"inputs": [],
			"name": "symbol",
			"outputs": [
				{
					"internalType": "string",
					"name": "",
					"type": "string"
				}
			],
			"stateMutability": "view",
			"type": "function"
		},
		{
			"inputs": [],
			"name": "tokenCounter",
			"outputs": [
				{
					"internalType": "uint256",
					"name": "",
					"type": "uint256"
				}
			],
			"stateMutability": "view",
			"type": "function"
		},
		{
			"inputs": [
				{
					"internalType": "uint256",
					"name": "tokenId",
					"type": "uint256"
				}
			],
			"name": "tokenURI",
			"outputs": [
				{
					"internalType": "string",
					"name": "",
					"type": "string"
				}
			],
			"stateMutability": "view",
			"type": "function"
		},
		{
			"inputs": [
				{
					"internalType": "address",
					"name": "from",
					"type": "address"
				},
				{
					"internalType": "address",
					"name": "to",
					"type": "address"
				},
				{
					"internalType": "uint256",
					"name": "tokenId",
					"type": "uint256"
				}
			],
			"name": "transferFrom",
			"outputs": [],
			"stateMutability": "nonpayable",
			"type": "function"
		}
	]
}